:020000040800F2
:103800000040022011F90008ADF50008AFF50008EE
:1038100000000000000000000000000000000000A8
:10382000000000000000000000000000B1F50008EA
:103830000000000000000000B3F50008B5F5000826
:1038400061F9000861F9000861F9000861F90008F0
:1038500061F9000861F9000861F9000861F90008E0
:1038600061F9000861F9000861F9000861F90008D0
:1038700061F9000861F9000861F9000861F90008C0
:1038800061F9000861F9000861F9000861F90008B0
:1038900061F9000861F9000861F9000861F90008A0
:1038A00061F9000861F9000861F900081DD50008F8
:1038B0002DD500083DD5000861F9000861F9000820
:1038C0000448054B10B5834203D0044B002B00D0B5
:1038D000984710BDBC070020BC0700200000000076
:1038E00006480749091A8B10C90FC91810B54910A5
:1038F00003D0044B002B00D0984710BDBC0700201C
:10390000BC0700200000000010B5074C2378002BF6
:1039100009D1FFF7D5FF054B002B02D0044800E08A
:1039200000BF0123237010BDC0070020000000006D
:10393000BC270108054B10B5002B03D004490548EE
:1039400000E000BFFFF7CCFF10BDC0460000000044
:10395000C4070020BC27010810B500F025F810BDF1
:1039600070B5041C00F0B0F80E4B051C1B785BB260
:1039700001330BD0211C201C01F082FB002805D153
:103980000021201C00F0EAFB002801D1281C70BD9A
:1039900003F00AFB212300210360081C00F0C4FE91
:1039A000051CF3E700000020F8B54B000C1CFF21BC
:1039B0005B08C9058B4215DC4200844652088A42E6
:1039C00010DCFE25AD05AC423ED00225A7173D40D8
:1039D000C70F3D43002A0AD1022D29D0032D05D15E
:1039E000304803E0011C201C00F002FDF8BD002B54
:1039F00019D08B421ED08A4215D0D31ADB153C2B2E
:103A000025DC002C2FDA3C332DDA0020012D3AD0B2
:103A1000022D30D0002DE9D0234900F0E9FC2349E4
:103A200001F066F9E2E76346002B1ADB2048DDE788
:103A30001E48DBE79A420CD0022DF9D0032DCFD0DF
:103A4000012D25D00020D1E700F098F8CEE71848E6
:103A5000DCE7022D23D0032D1FD0012D1BD01548EC
:103A6000C4E71548C2E7211C00F05EFE00F098F99B
:103A700000F084F8CAE70C4900F0BAFC011C0B48BE
:103A800001F036F9B2E780231B069C466044ADE79F
:103A900080200006AAE70948A8E70948A6E70948E0
:103AA000A4E7C046DB0F49C02EBDBB33DB0F494046
:103AB000DB0FC93FDB0F493FDB0FC9BFDB0F49BF3E
:103AC000E4CB16C0E4CB16402B49420070B503008E
:103AD000061C52088A423BD8002A38D0002840DB16
:103AE000FF21C905C21501420AD180200004064009
:103AF00001D03DE00E005B00711C0342FAD0921B26
:103B00007F3A100080225B025B0A12041A435300C2
:103B1000C10724D480221921002600254010520418
:103B2000AC189C4202DCA5181B1BB61801395B00BF
:103B300052080029F4D1002B02D0012301369E4304
:103B4000FC239B059C4676106644C005801970BD19
:103B5000011C00F0B3FF311C00F04AFCF7E79300B2
:103B6000D8E7011C01F0C4F8011C00F0DDFDEEE710
:103B700001267642921BC3E7FFFF7F7FF0B5C64662
:103B8000714B450000B5041C07006D089D420BDD1C
:103B9000FF23DB059D4200DD72E0002800DC7FE0B2
:103BA0006A4804BC9046F0BD694B9D427FDC694B7E
:103BB0009D4269DD01267642211C201C00F07EFF1B
:103BC000011C804600F07AFF6349051C00F076FF77
:103BD000624900F00DFC291C00F070FF604900F004
:103BE00007FC291C00F06AFF5E4900F001FC291C5B
:103BF00000F064FF5C4900F0FBFB291C00F05EFF55
:103C00005A4900F0F5FB414600F058FF58498046FC
:103C1000281C00F053FF574901F06AF8291C00F0F6
:103C20004DFF554901F064F8291C00F047FF534946
:103C300001F05EF8291C00F041FF514901F058F8ED
:103C4000291C00F03BFF011C404600F0D1FB211C69
:103C500000F034FF731C25D04A4DB600AB1919692A
:103C600001F046F8211C01F043F8011C705901F0E5
:103C70003FF8002F95DA80231B069C46604490E7AE
:103C8000011C00F0B5FB8CE73F4900F0B1FBFE21C1
:103C9000890500F077FA0300201C002B8AD080E70A
:103CA0003A487EE7011C201C01F022F879E700F079
:103CB00077F8374B041C9D4216DC364B9D4232DCB4
:103CC000011C00F095FBFE21890501F011F880210F
:103CD000051CC905201C00F08BFB011C281C00F0F2
:103CE00023FD0026041C67E72B4B9D4214DCFF21BB
:103CF000890500F0FDFFFF21051C8905201C00F04F
:103D0000DDFEFE21890500F073FB011C281C00F07C
:103D10000BFD0226041C4FE7011C204800F004FDA7
:103D20000326041C48E7FE21890500F0E1FFFE217F
:103D3000051C8905201C00F05BFB011C281C00F001
:103D4000F3FC0126041C37E7FFFF7F50DB0FC93F60
:103D5000FFFFDF3EFFFFFF30D769853C59DA4B3D5F
:103D6000356B883D6E2EBA3D2549123EABAAAA3E60
:103D700021A215BD6BF16E3D95879D3D388EE33DCB
:103D8000CDCC4C3E20280108CAF24971DB0FC9BFD7
:103D9000FFFF973FFFFF2F3FFFFF1B40000080BF4B
:103DA000400040087047C04602B4714649084900C7
:103DB000095C49008E4402BC7047C04603B471469A
:103DC000490840004900095E49008E4403BC704721
:103DD000002243088B4274D303098B425FD3030A4A
:103DE0008B4244D3030B8B4228D3030C8B420DD35D
:103DF000FF22090212BA030C8B4202D312120902EB
:103E000065D0030B8B4219D300E0090AC30B8B4228
:103E100001D3CB03C01A5241830B8B4201D38B03D6
:103E2000C01A5241430B8B4201D34B03C01A52417B
:103E3000030B8B4201D30B03C01A5241C30A8B42BE
:103E400001D3CB02C01A5241830A8B4201D38B02A9
:103E5000C01A5241430A8B4201D34B02C01A52414D
:103E6000030A8B4201D30B02C01A5241CDD2C309BF
:103E70008B4201D3CB01C01A524183098B4201D33B
:103E80008B01C01A524143098B4201D34B01C01A26
:103E9000524103098B4201D30B01C01A5241C3089E
:103EA0008B4201D3CB00C01A524183088B4201D30D
:103EB0008B00C01A524143088B4201D34B00C01AF9
:103EC0005241411A00D20146524110467047FFE765
:103ED00001B5002000F0F0F802BDC0460029F7D07F
:103EE00076E7704703460B437FD4002243088B429A
:103EF00074D303098B425FD3030A8B4244D3030B71
:103F00008B4228D3030C8B420DD3FF22090212BA35
:103F1000030C8B4202D31212090265D0030B8B42B1
:103F200019D300E0090AC30B8B4201D3CB03C01A9B
:103F30005241830B8B4201D38B03C01A5241430B76
:103F40008B4201D34B03C01A5241030B8B4201D366
:103F50000B03C01A5241C30A8B4201D3CB02C01AD1
:103F60005241830A8B4201D38B02C01A5241430A49
:103F70008B4201D34B02C01A5241030A8B4201D338
:103F80000B02C01A5241CDD2C3098B4201D3CB01DF
:103F9000C01A524183098B4201D38B01C01A52418E
:103FA00043098B4201D34B01C01A524103098B4292
:103FB00001D30B01C01A5241C3088B4201D3CB007D
:103FC000C01A524183088B4201D38B00C01A524160
:103FD00043088B4201D34B00C01A5241411A00D210
:103FE00001465241104670475DE0CA0F00D0494279
:103FF000031000D34042534000229C4603098B42E9
:104000002DD3030A8B4212D3FC22890112BA030A70
:104010008B420CD3890192118B4208D389019211F2
:104020008B4204D389013AD0921100E08909C30977
:104030008B4201D3CB01C01A524183098B4201D379
:104040008B01C01A524143098B4201D34B01C01A64
:10405000524103098B4201D30B01C01A5241C308DC
:104060008B4201D3CB00C01A524183088B4201D34B
:104070008B00C01A5241D9D243088B4201D34B0066
:10408000C01A5241411A00D20146634652415B10A8
:10409000104601D34042002B00D549427047634689
:1040A0005B1000D3404201B5002000F005F802BDCE
:1040B0000029F8D016E770477047C0468446101CA8
:1040C00062468C46191C634600E0C0461FB501F0ED
:1040D0008FFF002801D40021C8421FBD10B501F098
:1040E000D9FE4042013010BD10B501F081FF00281B
:1040F00001DB002010BD012010BDC04610B501F04D
:1041000077FF002801DD002010BD012010BDC04652
:1041100010B501F0FBFE002801DC002010BD0120DD
:1041200010BDC04610B501F0F1FE002801DA0020F4
:1041300010BD012010BDC0468446081C6146FFE743
:104140001FB500F071FC002801D40021C8421FBD3A
:1041500010B500F0F5FB4042013010BD10B500F085
:1041600063FC002801DB002010BD012010BDC0460B
:1041700010B500F059FC002801DD002010BD012021
:1041800010BDC04610B500F003FC002801DC002083
:1041900010BD012010BDC04610B500F0F9FB00288D
:1041A00001DA002010BD012010BDC046002B11D146
:1041B000002A0FD1002900D1002802D00021C943D4
:1041C000081C07B4024802A14018029003BDC04673
:1041D000E9FEFFFF03B4684601B5029800F03CF821
:1041E000019B9E4602B00CBC7047C0469E2110B594
:1041F000C905041CFFF7D0FF002803D1201C00F0E4
:1042000055FF10BD9E21201CC90500F071FD00F076
:104210004DFF80231B069C466044F2E770B50022E8
:104220000C4B04000D00FFF77DFF002804D1200097
:10423000290002F04BFD70BD064B00222000290032
:1042400002F0B2F902F042FD80231B069C46604456
:10425000F1E7C0460000E041F0B557464E464546FE
:10426000DE46E0B504000D009246994683B08B42CD
:1042700030D82DD04946504602F07CFE2900060079
:10428000200002F077FE331A9846203B9B4633D439
:104290005A465346934042461F00534693401E00E1
:1042A000AF423AD8AF4200D178E05B46A41BBD4193
:1042B000002B00DA75E00022002300920193012315
:1042C0005A4693400193012342469340009328E0CD
:1042D0008242CFD900220023009201930C9B002B35
:1042E00001D01C605D600098019903B03CBC904611
:1042F0009946A246AB46F0BD424620239B1A524641
:10430000DA40414613004A468A40170042461F439E
:10431000534693401E00AF42C4D9002200230092AE
:1043200001934346002BD9D0FB0772081A43464637
:104330007B080EE0AB4201D1A2420CD8A41A9D41E9
:10434000012024196D410021013E24184D41002E09
:1043500006D0AB42EED9013E24196D41002EF8D1B2
:10436000009801995B4600196941002B24DB2B0062
:104370005A464446D3402A00E2401C005B461500E2
:10438000002B2ADB26009E40330026004746BE4015
:104390003200801A9941009001919FE7A342BCD856
:1043A00083E74246202300219B1A002200910192BC
:1043B0000122DA40019286E7424620239B1A2A0016
:1043C00046469A402300F340444613432A00E24005
:1043D0001C005B461500002BD4DA42462F00202338
:1043E000260097409B1ADE403B003343CDE7C04692
:1043F000F0B54646D6464F464D024202C0B5520A77
:104400006E0A4700B0463F0E4E00C40FD0009446DF
:104410003B008246360EC90FAD098C426DD0B81BE9
:10442000814600284DDD002E00D188E0FF2F5AD0B4
:104430008023DB041D434B4601221B2B0ADC2B008F
:104440004A464946D3402022521A95402A00551E1A
:10445000AA411A4353469A1A530100D4B9E0920173
:104460009609300002F068FD05388640874200DD7D
:10447000D4E03300C71B20200137FB40C71BBE40E0
:104480003200561EB24100271A43530704D00F23AF
:104490001340042B00D00432530100D49CE07B1C59
:1044A000FE2F00D19AE09201520A9446DBB2D80561
:1044B0006346E407184320431CBC90469946A24635
:1044C000F0BD002849D0F31B002F00D0B6E05246C3
:1044D000002A60D0013B002B00D1FCE0FF2E00D071
:1044E000B4E00C004246002A78D08020C00310437C
:1044F0004202530A9C46FF23D9E7B91B002971DD0C
:10450000002E3FD0FF2FEED08023DB041D4301227D
:104510001B2907DC2A002023CA40591A8D406B1E34
:104520009D412A435244530153D50137FF2F55D0A3
:1045300001237B49134052080A401A43A5E7002D86
:104540002CD001235B429C46E1444B46002B00D11A
:10455000ADE0FF2F00D06EE7C5E7FE207E1C3042A5
:1045600060D1002F00D093E05246002A00D1B6E07F
:10457000002D9CD0521B500100D4C3E053460C00C8
:10458000EA1A82E7002D09D00139002900D18BE019
:10459000FF2FBCD1A7E70C0042463700FF2FA2D067
:1045A0005202530A9C46FBB281E7FE210137394291
:1045B00065D1002B7ED1002800D1AAE0002D00D1CA
:1045C00075E72A0052440027530102D5554B0137A5
:1045D0001A40530700D05AE7D208DFE70022FF2332
:1045E000944664E70029E0D0F31B002F3ED0FF2E55
:1045F00000D177E780220100D20411438A460122CC
:104600001B2B08DC524620215046DA40CB1A98403A
:10461000431E984102433700521984E7414A3F1A2A
:10462000324032E753465E1B73012DD4002E00D07A
:1046300017E7002200240023944638E7FF2E00D11C
:104640004FE780225046D2041043824601221B2BA2
:1046500008DC524620245046DA40E31A9840431EB4
:10466000984102430C003700AA1AF5E6002893D0BF
:10467000013B002B4FD0FF2EC1D1424633E7FF2F25
:10468000ACD055446A08A4E753460C00EE1AE8E69D
:104690005346002B28D1002D00D022E78023DB03D6
:1046A0009C460024FF2302E72A0052443BE753467E
:1046B0005A1BD1E6002800D114E7002D00D112E7E3
:1046C0008023DB031A4200D10DE74146194200D096
:1046D00009E7424607E70C003700AA1ABCE6002D9E
:1046E00013D00C00C446E2E6002D00D1FBE6802387
:1046F000DB031A4200D1F6E64046184200D0F2E64B
:104700000C00EFE6002A00D063E700220024944664
:10471000CDE6C446CBE62A003700524403E7C04644
:10472000FFFFFF7DFFFFFFFBF0B54F464646D64635
:104730004502C0B547000C1C6D0A3F0EC60F002F86
:1047400066D0FF2F6CD00023EA00802599469A4658
:10475000ED0415437F3F60026100430A9846090E4D
:10476000E40F002948D0FF2910D08022D800D204BD
:104770000243904600207F394A4633007F1A0243A5
:104780006C4992008A586340DBB29746002B6DD18A
:104790000220FF3F33E0002398462600454682462C
:1047A0005346022B00D17FE0032B00D194E0012B74
:1047B00017D038007F3000285FDD6B0704D00F234F
:1047C0002B40042B00D004352B0103D538005A4B65
:1047D00080301D40FE2867DCAD016D0AC0B202E0EA
:1047E0001E0000200025C0052843F60730431CBCEE
:1047F00090469946A246F0BD002B2BD101204A4697
:1048000033004E49024392008A586340DBB2974618
:10481000002D13D104239946033B00279A469AE7BB
:10482000002D05D108239946063BFF279A4692E7BB
:104830000C239946093BFF279A468CE7280002F093
:104840007BFB7627431F9D4000237F4299469A4673
:104850003F1A80E7180002F06FFB4246431F7621A3
:104860009A404942091A9046002085E7FF2103201B
:1048700082E71E00FF200025B5E701231B1A1B2B32
:10488000AFDC9E372900BD40D9406A1E95410D43DB
:104890006B0704D00F232B40042B00D004356B0191
:1048A00044D5012000259EE7FF2000259BE78025B9
:1048B0000026FF20ED0396E7002398468020C003E2
:1048C000054209D04346034206D1454605436D02E1
:1048D0002600FF206D0A86E78020C00305436D0295
:1048E000FF206D0A7FE741466A014801824219D2E2
:1048F0001B210025013F012614006D005200002CF1
:1049000001DB904201D8121A354301390029F3D155
:10491000501E824138007F301E001543002800DD04
:104920004BE7AAE71A210125121AE4E7AD0100209E
:104930006D0A58E740280108FFFFFFF780280108AB
:1049400070B542004E024C0045026D0A120EC30FB4
:10495000760A240EC90FFF2A0FD0FF2C11D0012098
:10496000A24200D070BDB542FCD18B420DD0002ACE
:10497000F8D12800451EA841F4E70120002DF1D10F
:10498000EBE70120002EEDD1E9E70020EAE7C04681
:10499000F0B5420046024D024C00C30F760A120EDB
:1049A0006D0A240EC80FFF2A1FD0FF2C10D0002A3A
:1049B0001FD171427141002C01D1002D1ED0002960
:1049C0000ED183421ED00221581E08400138F0BD8E
:1049D000002D26D1002AF4D1714271410029F0D076
:1049E0000028F4D101204042F1E7002E19D1FF2C1C
:1049F000EED0002CE5D1002DE3D1E4E70020002E1D
:104A0000E5D0E0E7A24205DCEADBAE4202D8E7D31C
:104A10000020DCE741424141484202210840013880
:104A2000D5E702204042D2E7F0B5420046024D02EF
:104A30004C00C30F760A120E6D0A240EC80FFF2A0F
:104A40000DD0FF2C0FD0002A23D171427141002CD0
:104A50000FD1002D0DD10020002E14D00DE0002E1E
:104A600010D1FF2C15D1002D0CD1002A03D1714299
:104A70007141002908D1834210D00221581E0840FC
:104A8000013800E00220F0BD0028FCD101204042A6
:104A9000F9E7002CEFD1002DEDD1EEE7A24205DCC5
:104AA000F2DBAE4202D8EFD30020ECE741424141B5
:104AB0004842022108400138E5E7C046F8B55746AC
:104AC0004E464546DE464402E0B545000F1C640AEA
:104AD0002D0EC60F002D47D0FF2D4DD00023802076
:104AE0009A469B46E400C00404437F3D7802430A93
:104AF00099467A00FB0F9846120E4B4644D0FF2A87
:104B000011D0D8008023DB040343994600207F3A6C
:104B1000AD18474653467740691C0F2B3FD8724A61
:104B20009B00D3589F46FF35002B00D079E05246BA
:104B300002231A4392460220EBE747464C4683463F
:104B40005B46022B28D0032B00D1C6E0012B4FD1AE
:104B500000200024C005FF07204338433CBC90469A
:104B60009946A246AB46F8BD002C71D104239A4663
:104B7000033B00259B46B9E7002C63D108239A46E6
:104B8000063BFF259B46B1E7002B50D1524601332F
:104B90001A4392460120BCE7FF200024DAE748468A
:104BA000260C2404220C0404240C4B4620001B0C6D
:104BB000504374435A435E431219030C9B189C42A2
:104BC00003D9802252029446664400041A04000C61
:104BD00012189401601E84411B0C920E9B19144301
:104BE0009B011C431B0172D50120630804401C4338
:104BF00008007F3000283CDD630704D00F232340EA
:104C0000042B00D00434230103D580310800374B36
:104C10001C40FE28C0DCA401640AC0B29AE7370039
:104C20008EE7524603231A439246032071E7484613
:104C300002F082F94A46431F9A402D1A91460020FD
:104C4000763D66E70C239A46093BFF259B464DE7D8
:104C5000200002F071F97625431F9C4000236D422D
:104C60009A469B462D1A41E780240027FF20E40343
:104C700070E701231B1A1B2B00DD69E79E31200022
:104C80008C40D840631E9C410443630704D00F232B
:104C90002340042B00D0043463011AD501200024E2
:104CA00058E78020C003044209D04B46034206D196
:104CB0004C46044364024746FF20640A4AE78020CA
:104CC000C003044364023700FF20640A42E729005E
:104CD0008EE7A4010020640A3CE78020C00304435F
:104CE0006402FF20640A35E7C0280108FFFFFFF7D0
:104CF000F0B54646D6464F4643025B0ADA00944674
:104D00004A02C0B54400560A051CB046240E4E00A7
:104D100092091F0020009246ED0F360EC90FFF2E9C
:104D200000D17FE0012251408D4251D0A21B91461B
:104D3000002A00DC7EE0002E00D199E0FF2C00D19B
:104D40008CE080235246DB041A4392464A460123F4
:104D50001B2A08DC53462021D340891A52468A4038
:104D6000511E8A4113436246D31A5A0100D4F3E01C
:104D70009B019E09300002F0DFF80538864084422E
:104D800000DDF7E03200041B20200134E240041B68
:104D9000A64033005E1EB341002413435A0704D0DB
:104DA0000F221A40042A00D004335A0100D4D6E05E
:104DB000621CFE2C00D1DAE09B015F0AD0B2C00574
:104DC0003843ED0728431CBC90469946A246F0BDE7
:104DD000A21B9146002A63DD002E00D199E0FF2C32
:104DE0003CD080235246DB041A4392464A460123B4
:104DF0001B2A08DC53462021D340891A52468A4098
:104E0000511E8A41134363445A0100D4A4E0013483
:104E1000FF2C00D1ABE0012297491A405B080B4000
:104E20001343BBE7002A32D08D4235D0FF225242D5
:104E30009146A1444A46002A51D0301B002C00D094
:104E40009CE06346002B00D1DFE00138002800D150
:104E5000F7E0FF2E00D099E00D004346002B00D173
:104E600085E08027FF031F437F02FF207F0AA6E71C
:104E70005246002A74D0012252429046C1444A460A
:104E8000002A00D1C8E0FF2C00D05FE7E6E701224E
:104E90005140A94200D049E7FF2252429146A14425
:104EA0004A46002A43D0311B002C00D18CE0FF2E53
:104EB00000D192E080236246DB041A43944601232A
:104EC0001B2909DC202063466246CB40411A8A40F8
:104ED0001100481E81410B433400534494E7FE22E5
:104EE000661C324264D1002C00D082E06346002B65
:104EF00000D1ABE05346002B00D160E76346524639
:104F00009B1A5A0100D4AAE0634652460D00D31AF8
:104F100044E75246002A23D0012252429046C1441F
:104F20004A46002A75D0FF2C00D05FE796E7FE26A0
:104F30000134264253D1002872D16346002B00D1A0
:104F400093E05346002B00D139E7634400245A0113
:104F500002D54A4A013413405A0700D020E7DB0843
:104F6000FF2C00D17AE75B025F0AE0B227E7FF205F
:104F7000002724E7414B241A33400FE7FF2E00D1CE
:104F80006AE780236246DB041A43944601231B2808
:104F900009DC202463466246C340201A8240100088
:104FA000441EA041034352460D003400D31ADCE6F0
:104FB000634652469E1A730117D4002E00D0D9E6DC
:104FC000002500200027FAE66346002B44D0013973
:104FD00000294CD0FF2E00D071E743463EE7FF2C5E
:104FE000C5D0524662445308B6E763460D00D61A50
:104FF000C0E66246002A16D15346002B00D02BE7AC
:1050000080270025FF20FF03D9E60D00434634002A
:10501000A6E753466344F7E6634652469B1AA4E666
:105020006246002AD9D05246002A00D116E78022D3
:10503000D203134200D111E74046104200D00DE7E1
:105040000AE752460D003400D31A8EE65346002B71
:1050500008D00D004746B2E64346340080E7002BF7
:1050600000D079E700250027A9E64746A7E6534682
:1050700034006344C8E6C046FFFFFF7DFFFFFFFB2F
:1050800042024B0240004900520A5B0A090E000E20
:10509000FF2806D00020FF2902D11800431E9841A6
:1050A0007047FE38002AFBD1F4E7C04641024200B7
:1050B000C30F490A0020120E7E2A03D99D2A02D965
:1050C000094A98187047802000040143952A07DC9C
:1050D0009620821AD1404842002BF3D10800F1E714
:1050E000963A9140F7E7C046FFFFFF7F70B5002872
:1050F00013D0C317C5185D40C40F280001F01CFF72
:105100009E2301001B1A962B0FDC082801DD0839AD
:105110008D406D026D0AD8B202E000240020002507
:10512000C0052843E407204370BD992B0BDD052201
:105130002E00121AD64002001B3295402800451E50
:10514000A84135000543052901DD4A1F95402A0085
:10515000084E3240680709D00F202840042805D0A7
:105160000432500102D59F2332405B1A9201550A46
:10517000D8B2D5E7FFFFFFFB70B5051E0ED001F0DA
:10518000DBFE9E2304001B1A962B0CDC082801DD95
:10519000083CA5406D026D0AD8B201E00020002550
:1051A000C005284370BD992B09DD020029001B3280
:1051B00091404A1E91410522121AD5400D43052CFB
:1051C00001DD621F95402900084E31406A0709D071
:1051D0000F202840042805D004314A0102D59F231E
:1051E00031401B1B89014D0AD8B2D9E7FFFFFFFBF5
:1051F000F0B54F46D64646460D0001001800C0B532
:1052000017002B035A0A4B0F1343CA00914602039F
:105210006E004100520AEC0F7D0F1543760D490DCB
:10522000C00F8246AC46FF00721A844200D198E05B
:10523000002A00DC81E0002900D1B6E0C9498E4295
:1052400000D172E180212800090408438446382AED
:1052500000DD5EE11F2A00DDEEE120203900654619
:10526000801A8740D14085400D4339004F1EB94117
:105270006746D7402943DB1B4A46551AA945894151
:1052800049425B1A984643461B0200D4CCE0434691
:105290005B025B0A98464346002B00D12CE1404656
:1052A00001F04AFE01000839202228004346521A24
:1052B0008B40D0408D4003438E4200DD17E18E1BB2
:1052C000721C1F2A00DDA7E1202118002E00891A78
:1052D0008D408840D640D340691E8D41304398466A
:1052E000002605436B0709D00F232B40042B05D064
:1052F0002B1DAB42AD416D42A8441D0043461B022D
:1053000000D494E0974B721C9A4200D19DE0414634
:10531000954BED0819400B00520549075B022943E4
:105320001B0B520D12051343E40723430800190019
:105330001CBC90469946A246F0BD002A43D08A1B69
:10534000002E00D02AE14C461C4300D1D1E1541E6E
:10535000012A00D11FE2834DAA4200D172E222004D
:1053600023E1002A00DC98E0002942D07D498E42EA
:1053700000D1DAE080212800090408438446382A55
:1053800000DD29E11F2A00DC87E111006546203994
:10539000CD40202A04D040206146821A91400F431C
:1053A00039004F1EB9410D431BE12900394300D19B
:1053B000B5E0511E012A00D1ABE16A48824200D11A
:1053C000B2E10A0043E76949751C0D4200D0CFE005
:1053D000002E00D093E14946194300D1D1E1614646
:1053E000394300D0E3E149465807C9080143DB08C7
:1053F00026E02900394300D191E0511E012A05D051
:105400005848824200D18FE10A00B8E73D004D4480
:105410004D458941634498464942884443460226A3
:105420001B0200D5EBE0013E6B0700D05CE7434672
:10543000E9085A0711433200DB084A48824221D06A
:105440001B0352051B0B520D6CE70023002169E77B
:105450002A003A4369D04A465807D108DA0880231F
:105460001B0308431A4207D02900ED081D4203D14F
:105470002A00FF0848073843430FC1005B07C908EB
:10548000194313000A001A4300D113E280221203C9
:1054900013431B03334A1B0B44E7002A4BD08A1BE0
:1054A000002E00D1E7E02F48814200D195E1802015
:1054B00000040343382A00DD43E11F2A00DDDBE15D
:1054C00020201D004E46801A8540D64035434E466A
:1054D00086403000D340461EB0419C440543ED1940
:1054E000BD429B415B42634498460E007FE01E4AEA
:1054F000761A13409846F5E6280001F01DFD0100DC
:1055000018311F2900DCCFE62B0008388340002526
:10551000D2E662463A4311004F1EB941ACE6494615
:105520005807C9080143DB0887E749465A07C908F5
:105530001143DB08A6E70D49701C084200D0BBE010
:10554000002E00D014E14946194300D175E129002D
:10555000394300D07EE149465807C9080143DB08BA
:105560006EE7C046FF070000FFFF7FFFFE07000059
:105570004946CD1B6146581AA9458941494288468A
:1055800001004046091A8846090200D5A6E04146B6
:10559000294300D07FE60023002451E7C74CA142F5
:1055A00000D1C7E0802424042343382A54DC1F2A76
:1055B00000DDCCE020244846A41A1D004E46A04041
:1055C000D640A5400400D34062463543661EB44130
:1055D000D31A9C46254344E062463A4315006F1EA9
:1055E000BD414D444D458941494288469844434612
:1055F0001B0200D418E7B14B01369E4249D0424607
:10560000AF4B01211A4013006A080D401543D9071A
:105610005B0898460D4365E618001F3EF040202ABF
:1056200003D040218A1A93401D43691E8D410023F7
:10563000002698460543F7E6110065462039CD401F
:10564000202A04D040206146821A91400F4339003D
:105650004F1EB94129430FE64A4613431D006B1EF6
:105660009D417D1BAF429B4162465B42D31A9846E7
:1056700054460E0007E64846184300D1B3E0501EDA
:10568000012A00D10DE18D4DAA4200D1A5E0020012
:1056900010E732000023002144E620213800891A57
:1056A00065468F408D40D040791E8F4105433D4374
:1056B0006746D740DB1994E7804A904200D1ECE07E
:1056C0003900494449459241634452429B18DD07E1
:1056D00049085B08984606000D43A5E64A46BD1AF0
:1056E000AF42894162464942D31A5B1A98465446F2
:1056F000D1E56C07F9082143EB0804009DE64A4612
:105700001A4375D16146394314D1802300241B0309
:10571000BCE64A46D51BA9458941624649429B1AC7
:105720005B1A98460126AEE54A46D1085A0711434E
:10573000DB08A7E66346F9085A0754461143DB081D
:10574000A0E64A4613431D006B1E9D41C7E61400A8
:105750001E00203CE640202A05D04024A21A934097
:105760004A461A4391464D466B1E9D41354378E7A4
:105770004A461A4300D06BE66B07F9081943EB0859
:1057800080E66146394354D06346F9085C072143FB
:10579000DB08040054E64A46BD1AAF42894162461E
:1057A0004942D31A5B1A9846040001266BE54A4623
:1057B000D51BA9458941624649429A1A521A904618
:1057C000120232D54A46BD1AAF4289416246494269
:1057D000D31A5B1A9846040084E56346F9085A0711
:1057E0001143DB084EE6F90868070143EB0824E69D
:1057F00062463A4300D198E64A46D1085A07114317
:10580000DA0880231B031A4208D06046C5081D42EF
:1058100004D154462A00F908430719434B0FC90025
:105820005B07C908194313002CE64146294300D001
:10583000FAE500230A00002402E66B07F908194381
:10584000EB08FDE56346F9085B071943634604006E
:10585000DB0817E63D004D4463444D4589419846B9
:105860004942884443461B0200D4DDE54246144BBE
:1058700001261A409046D7E510001E002038C64089
:10588000202A05D04020821A93404A461A43914666
:105890004D466B1E9D41354321E602000023002149
:1058A00040E54A46D519BD4289416344984649427C
:1058B0008844B3E50021014A0B0033E5FF070000EF
:1058C000FFFF7FFFF0B557464E464546DE46E0B542
:1058D000814605000C03480092461F0085B0240B4A
:1058E000400DCE0F002859D0874B984200D198E048
:1058F0006B0FE4001C4380231B0423439846834B17
:10590000ED009B4600239946834400933C037B00B3
:105910005046240B5B0DFF0F002B67D07A4A934251
:1059200018D07A49420F8C46E4005946144380222D
:1059300063441204CB1A14439B46C2000020330078
:105940007B409A464B460F2B00D9EFE070499B00F5
:10595000CB589F466F4B52469C462243E344002A55
:1059600000D095E0494602231943894600240220CD
:10597000E5E700230024002552461B052343D207F8
:1059800013432800190005B03CBC90469946A24636
:10599000AB46F0BD002400255B4BEDE74B462343AF
:1059A000984600D189E0002C00D1E0E1200001F010
:1059B000C3FA010002000B391D235B1A494610008F
:1059C000D940083884400B004D4623439846854013
:1059D00051483C03831A9B460023994600937B0061
:1059E0005046240B5B0DFF0F002B97D152462243EC
:1059F00055D0002C00D1CAE1200001F09DFA020030
:105A00000B3A1D2301009B1A52460839DA408C409C
:105A1000144352468A40414B58449B4683440020DD
:105A20008DE74B462343984640D108239946063BD1
:105A300000258346009369E7B246009B022BA9D05C
:105A4000032B00D111E2012B93D0354A5A44002A8E
:105A500000DC3CE16B0700D0A7E1ED084346DB0129
:105A600006D542462F4B1A4090468022D2005A4417
:105A70002D4B9A428EDC4346520558075C02054383
:105A8000240B530D78E7BA46A04615000090D4E7E2
:105A90004A4603231A439146032052464FE749469C
:105AA0000123194389460024012048E70C23994625
:105AB000093BA0468346009328E704239946002328
:105AC0009B4601330025009320E7002380249A465B
:105AD00000250D4B24034FE7802341461B03194249
:105AE00008D01C4206D11C432403BA461500064BBD
:105AF000240B41E78024434624031C432403B2467D
:105B0000014B240B38E7C046FF07000001FCFFFFF4
:105B10000029010801F8FFFF0DFCFFFFF30300005F
:105B2000FF030000FFFFFFFEFE070000444500D218
:105B300016E100D111E101235B429C462E00404654
:105B40000025E3442302140E1C431B0C9946230436
:105B50001F0C1202494600920197FEF7BFF902009E
:105B60007A430B04310C804619438A420BD9012336
:105B70005B429C460919E0448C4204D88A4202D90F
:105B8000831E98460919881A4946FEF7A7F90904A1
:105B90008C4631046646019A090C424303003143A6
:105BA0008A4204D90919013B8C4200D811E1891AB3
:105BB0004246009E12041A43330C1F00100C9046FC
:105BC000029313043204160C32001B0C5A43039642
:105BD0007B4346437843170CBC469B1963449E4263
:105BE00003D980267602B44660441E0C3018160491
:105BF0001B04360C9E19814200D29CE000D197E034
:105C0000AE1B091AB54280414042081A844200D1B5
:105C100011E14946FEF762F9019A0B044243310C47
:105C2000050019438A4207D90919013D8C4203D85E
:105C30008A4201D9851E0919881A4946FEF74EF98C
:105C400009048C4631046646019A090C424303005C
:105C500031438A4207D90919013B8C4203D88A4251
:105C600001D9831E0919039E891A32002D041D4390
:105C7000029F2B041B0C5A437B439C46280C464333
:105C8000130CB444634478439E4203D980267602C1
:105C9000B44660441E0C12041B04120C30189B18EE
:105CA000814206D302D001231D43CEE6002B00D152
:105CB000CBE661186E1EA14200D2A4E0814200D260
:105CC000C9E000D1D9E03500EDE701256D420121A1
:105CD000891A382900DD4CE61F2900DC7FE01F23EC
:105CE0005B429A1A4346D340202904D04446654A71
:105CF0005A44944025436A1E954107222B431500C0
:105D000000241D401A4200D1A1E00F2200241A40B5
:105D1000042A00D198E01A1D9A429B415B42E41884
:105D20001300220200D48FE001230024002523E683
:105D3000B54200D364E743465A1E009B9C46654427
:105D40001F009D429B415B421B19C9188C423AD2ED
:105D5000884263D860D0904652E7AA4200D9EAE66A
:105D60004346DE0758086B081E43ED07EAE648463F
:105D700001F0E2F801000200153120321C2900DC9C
:105D80001AE64B46083883400025984620E601F085
:105D9000D3F803001A00153220301C2A00DC30E64C
:105DA0005446083B00229C4035E60F232B40042B31
:105DB00000D152E605235B42AB429B4104355B4276
:105DC000ED0898444AE68C42C5D1AF42C0D990460E
:105DD00016E78A4200D8EAE6831E0919E7E62A4A4E
:105DE00028005A44434695409340C8406A1E954156
:105DF000444603432B43CC405A0792D00F221A400B
:105E0000042A88D18DE73500814200D04BE7009A03
:105E1000934200D047E718E6AE429CD902235B428A
:105E20009C46009BE0449C4665449D429B415B42EE
:105E30001B19C918E4E6154A5A44002A00DC44E755
:105E400001230025984409E665076402240BDB085A
:105E50001D43002390E5009E023D7200B242BF4107
:105E60007F423C1909190092CEE78024434624035F
:105E70001C432403064B240B7EE5009A9A42EAD386
:105E80003500C4E73E0400001E040000FF030000CC
:105E9000FF070000F0B54F464646D6469446914669
:105EA0001A03120B184DC0B54C000F0392465A004E
:105EB000060080463F0B0120640DC90F520DDB0F19
:105EC000AC420AD0AA4203D0944201D157450DD02A
:105ED0001CBC90469946A246F0BD3D003543F7D123
:105EE000A242F5D1524665462A43F1D10120C84568
:105EF000EED1994206D0002CEAD13E433000461E36
:105F0000B041E5E70020E3E7FF070000F0B54E46AB
:105F100045465746DE4604001800E0B516001B0350
:105F20001B0B324D0F034A0099464300A446B0466E
:105F30003F0B520DC90F5B0DC00FAA4229D0AB42D7
:105F400018D0002A2AD13C43A34665426541002B64
:105F500002D14C46264327D0002D15D1814228D0AE
:105F600002200139084001383CBC90469946A246BF
:105F7000AB46F0BD4D462E432FD1002AEED13C4317
:105F800065426541002DE9D00028EDD10120404255
:105F9000EAE73D00254320D19342EBD0002BDDD131
:105FA0004C462643DAD1DBE75B460020002BDBD0F2
:105FB000D6E79A420ADCE7DB4F45D1D810D0002063
:105FC0004F45D1D20029E1D00800CDE743425841E6
:105FD0000223404218400138C6E702204042C3E78E
:105FE000C445BDD80020C445BED2EBE7FF07000082
:105FF000F0B54E4645465746DE4604001800E0B56B
:1060000016001B031B0B314D0F034A00994643003A
:10601000A446B0463F0B520DC90F5B0DC00FAA42FC
:1060200011D0AB4214D0002A2FD13C43A346654285
:106030006541002B14D14C46264311D15B4600200C
:10604000002B17D010E03D00254312D193421CD104
:106050004D462E430DD1002A04D13C436542654193
:10606000002D0DD1814216D002200139084001389F
:1060700000E002203CBC90469946A246AB46F0BDEB
:106080000028F7D101204042F4E7002BEAD14C462A
:106090002643E7D1E8E79A4206DD4342584102230E
:1060A000404218400138E5E79A42E9DB4F45DBD82A
:1060B00006D000204F45DDD20029E3D00800D9E703
:1060C000C445D1D80020C445D4D2F5E7FF0700006D
:1060D000F0B557464E464546DE46E0B598460C03B9
:1060E0004B000600924687B0240B5B0DCF0F002BB0
:1060F0006CD0DD4A934200D186E0420FE4001443A5
:10610000802212041443D94AC50094466344009384
:10611000002399469B46434642461E03D20F5B002E
:1061200050469046360B5B0D00D178E0CE4A934244
:106130001DD0CE49420F8C4600996344F6008C4630
:10614000164380229C44120463461643C20000207A
:1061500000930099434601318C4649467B400193A8
:106160000F2900D97EE0C24B890059588F4652460C
:10617000009B324300D056E1BB4900268C46634465
:10618000494600930223194389460220E1E743462A
:1061900001933400150083465B46022B5ED0032B2F
:1061A00000D1F3E1012B00D018E1002200240025EA
:1061B000019B12052243DB071A432800110007B098
:1061C0003CBC90469946A246AB46F0BD250005432F
:1061D00000D141E1002C00D1ADE1200000F0ACFE87
:1061E000010002000B391D2310005B1A310035003D
:1061F00008388440D94085400C439E48831A009358
:10620000002399469B4686E70500254300D01CE104
:10621000082200930223002491469B467BE75246C6
:10622000324300D10AE1002E00D176E1300000F0C7
:1062300083FE02000B3A1D2301009B1A52460839C7
:10624000DA408E40164352468A40009B8949181A0C
:1062500003008C466344002000937AE70024002565
:10626000814AA5E72F0C2D042D0C2B00110C1204D4
:10627000120C53439846130028007B439946484329
:106280004844834640460B00000C824658467B43F8
:1062900050440293814506D99A4680235B02994671
:1062A000CA4453460293030C9B4643461B04000416
:1062B0001B0C9846030043440493330C99462B006F
:1062C0003604360C7343984633007B439A464B465C
:1062D0005D435F4343465544180C4019824503D93A
:1062E00080235B029A465744050CEB1905934346FD
:1062F0001D042D0C00044019250C2404240C270037
:1063000057436A4390462A003B0C9A464A436143EE
:10631000414451448344884503D980235B02984615
:1063200042443F040B0C3F0C0904C919270098464E
:106330004B4677435C436E435D433B0C9946A4193F
:106340004C4442440395A64204D980235B029846FC
:1063500045440395029B3F045B441E0083428041F9
:1063600023049846059B3F0C4744984676188E4276
:106370008941474440423D18A846934649428A46CF
:10638000C3449F42BF4180458041039BDA44984605
:10639000534640427F420743240C934592418A452D
:1063A00089413F19DC0D049B75021D43681E854120
:1063B0005346524249420A43BF184744F60D7F02F2
:1063C00035435A023C431543FB0100D4C1E001218F
:1063D0006A080D401543E2071543640826496144E5
:1063E000002956DD6B0709D00F222A40042A05D068
:1063F0002A1DAA42AD416D4264191500E30104D57E
:1064000080211E4AC900144061441D4A914200DDAA
:1064100024E76207ED08640249051543240B4A0D81
:10642000C6E60197B8E6104A0320944663444A46FC
:10643000009303231A43914652468AE649460123B4
:10644000194389460026012083E60C22009303238A
:10645000050091469B465EE604239946002300937F
:10646000013300249B4656E6FF07000001FCFFFFB6
:10647000402901080DFCFFFFFF030000FFFFFFFEA6
:10648000FE070000002380240025444A01932403D2
:106490008EE60120401A382800DD86E61F285BDDE5
:1064A0001F2223005242511ACB401900202803D04A
:1064B0003B4A6244944025436A1E95412A000A43A0
:1064C00007210D000024154011425BD00F2100244C
:1064D0001140042953D0111D914292415242A418F7
:1064E0000A0023024BD501220024002560E6802308
:1064F0001B031C4209D01E4207D133431C034346F1
:106500001500240B254A019352E6802212031443FE
:106510002403224A240B01974AE600F00DFD0300F4
:106520001A00153220301C2A00DC84E65646083B4F
:1065300000229E4089E600F0FFFC010002001531B8
:1065400020321C2900DC4EE6340008380025844047
:1065500053E6009B9C4641E71249220061442E000D
:106560008D408A40C640691E8D4132432A43C44053
:106570005307B6D00F2111400429ACD1B1E765070C
:106580006402240BD2081543002211E68022120374
:1065900014432403014A240B0AE6C046FF07000007
:1065A0003E0400001E040000F8B557464E4645461E
:1065B000DE460400E0B51F0010000B03620F4E0022
:1065C000CD0F5B0A39031343490AE200440F21430C
:1065D000C24C91469246C0007A008046760D520D1C
:1065E000FF0FA24200D1B4E001246740BB46BD4288
:1065F00000D188E0B41AA446002C00DCB2E0002AE6
:1066000000D1C5E0B54A964200D18BE28022120447
:1066100011436246382A00DDA1E11F2A00DD16E29F
:1066200020270C00BF1ABC400200A0466446B840B8
:10663000E240444614430200501E82416046C1407D
:1066400022435B1A49468C1AA145924152429B1A39
:10665000984643461B0200D417E143465B025B0A9F
:1066600098464346002B00D16CE1404600F064FCA4
:106670000200083A202120004346891A9340C8406E
:1066800094400343964200DD57E1961B711C1F297D
:1066900000DDCBE1202218002600521A94409040E1
:1066A000CE40CB40621E94413043984600260443BE
:1066B000630709D00F232340042B05D0231DA342D9
:1066C000A4416442A0441C0043461B0200D4DFE006
:1066D000824B01369E4200D1FBE04246804BE408EB
:1066E0001A401300710552075B0222431B0B490D30
:1066F0000905ED071943294310003CBC9046994613
:10670000A246AB46F8BDB41AA446002C58DD002AB8
:1067100000D19EE0714A964200D13BE180221204F2
:1067200011436246382A00DDC1E01F2A00DCBBE1CC
:106730000C00203AD44022006446202C04D040278C
:106740003F1BB940084380464446611E8C411443B8
:10675000B1E00C0004432AD0BB46BD422DD0614CB1
:10676000A446B4446446002C5CD0941BA446002E7E
:1067700000D015E14D461D4300D1C3E1651E012C3B
:1067800000D10CE2554EB44200D1F8E1AC460EE126
:106790000A00024300D136E12200013A012C00D167
:1067A000C6E14E4CA44500D1F4E0944631E7012403
:1067B0006740BB46BD4200D01CE74A4CA446B444E7
:1067C0006446002C00D1CFE0941BA446002E00D1DB
:1067D0005CE1424EB24200D1ECE180263604334304
:1067E0006446382C00DDB3E11F2C00DD38E22026A2
:1067F000361B1C00B4404F46A0466446E740444662
:106800003C434F46B7403E00771EBE413443664688
:10681000F340C918241884429B415B4298461600F5
:1068200088444EE0304A741C144200D0D6E04A46F8
:106830001A43002E00D05BE1002A00D1A5E10A0036
:10684000024300D0BBE14A465907D2080A43DB089D
:1068500027E00A00024300D174E12200013A012C32
:1068600005D01E4CA44500D194E0944659E7484415
:10687000484592415B189846040052429044434672
:1068800002261B0200D5C4E0013E630700D011E7D9
:106890004346B4465907E2080A43DB080F498C45D2
:1068A00040D061461B0349051B0B490D20E70143FE
:1068B0000C00611E8C414C444C4592415242904622
:1068C000984443461B02E0D5044B01369E4200D05B
:1068D0009FE03100002300220AE7C046FF070000C6
:1068E000FFFF7FFF01F8FFFFFE070000002A00D135
:1068F00060E10A0002434DD04A465C07D2082243B9
:106900008024DB082403234207D0CE08264204D18A
:106910005D463300C20849070A43510FD200D2082E
:1069200049070A431100194300D1C8E18021090336
:106930000B431B03D5491B0BDAE6D549B61A0B40AE
:106940009846B5E6200000F0F7FA020018321F2A38
:1069500000DC8FE6230008388340002492E60843D9
:106960000200501E82416DE6CA4C721C224200D0C9
:10697000ADE04A461A43002EB8D1002A00D158E1B2
:106980000A00024300D059E14A465907D2080A4397
:10699000DB0886E74A465907D2080A43DB08C1E705
:1069A000BA4DAA4200D11EE180252D042B43644636
:1069B000382C5DDC1F2C00DDD0E0202567462D1B28
:1069C0004E461C00FE40AC4034434E46AE403500BF
:1069D000FB406E1EB541C91A2C434EE04A46141ABC
:1069E000A1459241524290465F1A3A004746D21B57
:1069F0009046120200D58BE04246224300D030E69A
:106A0000002300254DE74A465907D2080A43DB0810
:106A100044E742469E4B61081A401300012214408D
:106A20000C43DA075B089846144341E61A001F3E00
:106A3000F2401600202903D04022511A8B401C43FB
:106A4000621E944100233443984600261DE70C0043
:106A5000203AD44022006446202C04D040273F1B1B
:106A6000B940084380464446611E8C412243E9E513
:106A70004C4623431C00631E9C41041BA0429B41C7
:106A80005B42CB1A98465D461600E2E54E461E4331
:106A900000D1AEE0661E012C00D1FDE07B4FBC4270
:106AA00000D107E1B4469BE664462022121B0C008D
:106AB000944007009040A0466446421E90416246C2
:106AC000E7404446D1403C4304435B18F3E66F4C37
:106AD000A24200D1D5E048445B184845894149426B
:106AE0005B18DC0740085B08984616000443CCE6B8
:106AF000002A00D082E00A00024340D18023002512
:106B00001B0313E74B07C2081A435D46CB08C5E6D3
:106B10004A46841AA0429241CB1A52429B1A984686
:106B20005D469EE54A465907D2080A43DB08F9E666
:106B30004A46141AA14592415B1A52429B1A984642
:106B4000012686E54A465907D2080A43DB08A5E62E
:106B50004C4623431C00631E9C415BE665461E00B9
:106B6000203DEE40202C05D040252D1BAB404C464F
:106B70001C43A2465446631E9C4134437DE74B07A9
:106B8000C2081A435D46CB08CCE60A00024300D196
:106B900036E74B07C2081A435D46CB0881E64A46F2
:106BA000841AA0429241CB1A52429B1A98465D46E3
:106BB00001264EE54B07C2081A43CB08B2E64A4607
:106BC000141AA14592415F1A5242BA1A9046120213
:106BD0006BD54A46841AA0429241CB1A52429B1A64
:106BE00098465D4664E54B07C2081A435D46CB08EC
:106BF00098E64B07C2081A43CB084FE60A00024347
:106C000090D04A465C07D20814438022DB08120366
:106C1000134208D0CE08164205D1C00849070843E0
:106C200004005D463300610FE2004907D2080A43C1
:106C300078E64B07C2081A43CB0832E648445B1893
:106C400048459241984652429044434604001B02F4
:106C500000D41AE642460E4B01261A40904614E62E
:106C600066461F00203EF740202C05D04026361BEC
:106C7000B3404C461C43A2465446631E9C413C43D1
:106C8000C8E511000023002232E5C046FF070000DE
:106C9000FFFF7FFFFE0700004A461418844292411E
:106CA0005B18984652429044E9E54246224300D19F
:106CB000A6E6EAE54B07C2081A43CB0832E60022F3
:106CC0000149130014E5C046FF0700000A0030B573
:106CD000134C530009030500090B00205B0DD20F74
:106CE000A34204DD0F48834202DD0F4BD01830BDB4
:106CF0008020400301430D48C01A1F2808DD0C48BE
:106D0000C31AD9400B005842002AF0D11800EEE710
:106D1000084CC540A446634499400B002B43F2E75E
:106D2000FE0300001D040000FFFFFF7F330400008E
:106D300013040000EDFBFFFF70B5002816D0C31749
:106D4000C5185D40C40F280000F0F6F8114A121A69
:106D50000A2816DC03002E0015339E400B23181A58
:106D6000C54053052D032D0B5B0D03E000240023CC
:106D7000002500261B052B43E407234330001900A0
:106D800070BD0B38854053052D0300262D0B5B0D80
:106D9000F0E7C0461E04000070B543004602C40F71
:106DA000FE201B0E591C750A08420CD0E0229200EE
:106DB00094466D07360B63441B053343E4072343B6
:106DC0002800190070BD002B14D1002D1BD0280005
:106DD00000F0B2F80A281CDC0B232A001B1ADA4048
:106DE000030015339D400E4B12031B1A5B05160B57
:106DF0005B0DE1E7002D09D0320B80263603094BED
:106E00006D071643D8E700230026D5E70026054B7B
:106E1000D2E703002A000B3B9A400025E3E7C04677
:106E200089030000FF07000002004B00F0B50803D3
:106E30005B0D3D4ECC0F400A510F5F1C0843D5003F
:106E400037420AD039495E18FE2E16DDFF23002195
:106E5000DB050B43E0071843F0BD002B06D12843A8
:106E600027D005218901490ADBB2F1E70543EDD0BE
:106E70008021C903FF230143EAE7002E1CDD9201B4
:106E800011004A1E9141C0006D0F014329434B0779
:106E900048D00F230B40042B00D004318023DB04A7
:106EA0000B403FD0721CFE2ED0D08901490AD3B2CC
:106EB000CEE700230021CBE73200173222DB80210E
:106EC0001E2209040843921B1F2A1DDD022149428C
:106ED0008E1B0100F1400E00202A04D0144A944673
:106EE00063449840054329004D1EA94131430026C3
:106EF0004B07CED180200B00C00401220340014289
:106F0000D3D1AFE70023ACE70A498C46290063449C
:106F1000D1409D400A00290098404D1EA9410143DF
:106F20001143E4E733009DE7FE07000080FCFFFF0C
:106F3000A2FCFFFF82FCFFFF1C2101231B049842DF
:106F400001D3000C10391B0A984201D3000A0839FA
:106F50001B09984201D30009043902A2105C4018B1
:106F60007047C04604030202010101010000000055
:106F70000000000010B5002903D1FFF7DDFF20302D
:106F800002E0081CFFF7D8FF10BDC04610B5062070
:106F900001F08AF9012008F0EEFCC04610B500218E
:106FA00002F0E2F910BDC046014B18687047C046B8
:106FB0000400002070B50C4D0C4E761BB61005D0A9
:106FC000002408CD01349847A642FAD10BF0F6FB15
:106FD000074D084E761BB61005D0002408CD0134AD
:106FE0009847A642FAD170BD083501080835010856
:106FF000083501082035010810B5034B0100186859
:1070000000F00CF910BDC0460400002010B5034B81
:107010000100186800F0ACF810BDC0460400002064
:10702000F0B5C64600B50F2A43D90B00032603432B
:107030001E400C000300002E40D11500103D2D090C
:10704000AC462D01A846804400E03B0067682568F7
:107050005F60E7681D60DF601F00A56810379D60F6
:1070600010344345F1D165460F230C2401352D0121
:10707000491913404519144223D08C59AC51043698
:107080009C1B032CF9D80324043B9B0801339B0071
:107090002240ED18C918561E002A07D0002300E030
:1070A0002300CA5C5C1CEA549E42F9D104BC9046A1
:1070B000F0BD0500561E002AF0D1F7E7561E050068
:1070C000ECE71A00F6E7C046F0B5050083074AD0A2
:1070D000541E002A44D0CEB20300032202E0013540
:1070E000013C3DD301332E701342F8D1032C2FD92C
:1070F000FF220A40150215432A0415430F2C35D9E7
:107100002700103F3F093E01B4461E001A0010360A
:107110006644156055609560D5601032B242F8D172
:107120000F260C2201373F012640DB19370022428F
:1071300017D03E1FB608B400A4461A001C1D6444B4
:1071400020C2A242FCD103240136B6009B193C4068
:10715000002C05D0C9B21C19197001339C42FBD117
:10716000F0BD3400F4E714000300BFE72700E0E7B8
:1071700070B50500002915D00C1F2368002B27DBF4
:10718000280004F04BFB244B1A68002A05D0A242C9
:107190000CD921686018824224D0626028001C60EB
:1071A00004F03EFB70BDA34203D81A005368002BC5
:1071B000F9D111685018A0421BD027D82168601857
:1071C000834207D063605460280004F029FBE9E79C
:1071D000E418D5E718685B68844661442160636001
:1071E0005460F1E71068526884466144216062602F
:1071F000D4E720680918501811608342E4D1186858
:107200005B688446614411605360DDE70C2328000D
:107210002B6004F005FBC5E7DC070020F8B503236D
:10722000CD1C9D43083506000C2D2AD20C25A94201
:1072300029D8300004F0F2FA2A4F3A68002A0AD01E
:1072400013685B1B04D441E023685B1B1FD522003D
:107250005468002CF8D17B68002B3DD02900300009
:1072600000F0B4FE431C2AD00323C41C9C43A0425C
:1072700005D0211A300000F0A9FE431C1FD0256064
:1072800010E0002DD3DA0C2300203360F8BD0B2B67
:1072900005D86368A2421DD0536003E01400236048
:1072A000E4182560300004F0BBFA200007220B3000
:1072B000231D9043C21AE9D01B1AA350E6E70C2302
:1072C0003000336004F0ACFA0020DFE70B2BE5D888
:1072D000140053683B60E5E70021300000F076FEC3
:1072E0007860BBE7DC070020F0B5CE4600B588B07B
:1072F0001D001700129C0023002D04DA80210906CE
:107300006B181D002D23109A1370662C23D0462C69
:1073100021D0202322009A43452A48D007AB04936A
:1073200006AB0393119B3A0002930E9B0193022339
:1073300000932B0002F040FB0600672C49D10F9B05
:10734000DB0748D4079B3000139A9B1B136008B0DF
:1073500004BC9146F0BD07AB049306AB0393119BAD
:107360003A0002930E9B0193032300932B0002F03B
:1073700023FB0E9B0600994633788144302B2DD099
:10738000119B1C684C440023002238002900FCF7A4
:10739000A5FE23000028D6D1079B9C42D3D93021DB
:1073A0005A1C07921970079BA342F9D3CBE70E9B97
:1073B0003A0001330E9307AB049306AB0393119B82
:1073C00002930E9B0193022300932B0002F0F4FA28
:1073D0000600472CB3D00E9BF418D4E700220023FC
:1073E00038002900FCF77AFE0028C9D101240E9B41
:1073F000E41A119B1C60C5E7F0B54F46D6464646D9
:10740000C0B5831C99469A4682B007000C000270F2
:107410002B23002901DA4C4202337B70092C2EDD2C
:1074200007236B4498461D0001E0350004000A2143
:107430002000FCF73DFE6E1E3031317020000A2125
:10744000FCF750FD632CF0DC3030AA1EC0B2107087
:1074500042450CD2494600E01078013208700131F3
:107460004245F9D109266E44761B4E44B246534636
:10747000D81B02B01CBC90469946A246F0BD3023F2
:107480003034BB703B1D9A46FC70F0E7F0B5DE4629
:1074900057464E464546E0B591B01F001A9B0C007A
:1074A00098461600050004F0DFF8036818000A93F8
:1074B00000F040FF00230B900E93237E0722994695
:1074C000236841469A4643461B68073393431A0094
:1074D00008320A601A685B689046A264E36401227D
:1074E0009B465B005B0809935242B84B40460999A2
:1074F00005F052FC002809D10122B44B524240460B
:107500000999FCF7FBFD002800D188E042465B4664
:107510004046594605F040FC002800D09FE28023F9
:1075200051466268DB000B43511C30D04946672945
:107530006FD047296DD00021236006910EA90591D7
:10754000494604A804910DA984460391232161446E
:1075500001930092029142465B4628008A46FFF75B
:10756000C3FE80464B460D99652B39D82000013962
:107570004A4650300D91FFF73FFF0E9A834613188D
:107580002361012A00DCC3E10133236139E00732C2
:1075900062600021236006910EA90591494604A866
:1075A00004910DA984460391232161440193009223
:1075B0005B464246029128008A46FFF795FE20234B
:1075C0004A4680469A43472ACCD10D99CB1C00DB12
:1075D0007DE04B46023BDBB299464B46652BC5D955
:1075E000662B00D17DE00E9B8B4200DC85E0012202
:1075F000002901DC0132521A9B18236100239B46AB
:10760000A16553461B78002B21D043232D22E25441
:107610001DE0002A00D078E001226260B9E7002274
:10762000002340465946FCF75FFD002802D0432363
:107630002D22E2544B46472B50D9654B98460323E5
:107640005246236101339A4300239B462260330054
:1076500000970FAA2100280000F022FA431C2DD029
:1076600023685A0500D570E023694246310028009E
:10767000B847431C22D022680F98E368920760D570
:107680001A1A002A5DDD19239946002398463B000B
:10769000A14437002E004D46A1464446984606E0D8
:1076A0004B460F98DB6801341A1AA24249DD0123C8
:1076B0002A0039003000C047431CF1D1012040426C
:1076C00011B03CBC90469946A246AB46F0BD6368FB
:1076D000994200DD7DE76723994684E73D4B984654
:1076E000ADE76368002900DC17E12161002B00D1C0
:1076F0004AE101335B18236180E723682161DB07DE
:1077000000D47BE74B1C236178E7002123600691BE
:107710000EA90591494604A804910DA98446039138
:10772000232161440291019300925B464246280066
:107730008A46FFF7D9FD0D998046CB1C00DA48E751
:10774000C5E79842BCDA1800BAE74A46652A45D927
:10775000A06CE16C00220023FCF7C0FC002800D1E3
:1077600084E001231C4A31002800B847431CA5D0FF
:107770000D9B0E9A934203DB2268D30700D47BE76C
:107780000B9B0A9A31002800B847431C96D01A2355
:107790009946002398460E9BA144012B00DC6AE722
:1077A0003B0037002E004D46A1464446984605E072
:1077B0000E9B0134013BA34200DCF7E001232A00C9
:1077C00039003000C047431CF2D177E7FFFFEF7F5D
:1077D0007433010870330108803301080E9A012ABE
:1077E00000DC80E00123424631002800B847431CFA
:1077F00000D163E70B9B0A9A31002800B847431C6D
:1078000000D15BE7A06CE16C0E9B0022994600233F
:10781000FCF764FC002871D01A239A46002398468E
:107820004B46A244012B17DDA1464446B84637001B
:107830002E00554604E00E9B0134013BA34207DDB8
:1078400001232A0039003000C047431CF3D135E73B
:1078500035004C463E00474622005B465032310020
:107860002800B847431C00D005E727E70D9B002BF5
:1078700058DDA36D9A460E9B9B46534500DD88E07C
:107880005B46002B08DD424631002800B847431C08
:1078900000D113E7A36D9A465B46DB435A46DB17DC
:1078A0001A40534693469B1A1A2294460022A44437
:1078B00061469146002B00DC83E0A2464C46B94667
:1078C00037002E000D0006E053465A469B6D0134EA
:1078D0009A1AA24270DD01232A0039003000C847FD
:1078E000431CF1D1EAE6DB0700D57BE701234246E2
:1078F00031002800B847431CAED1DFE64B46424674
:10790000013B013231002800B847431CA4D1D5E621
:107910002268D20700D474E636E6002B3BD09A1CCE
:1079200022616BE601235B4A31002800B847431C03
:1079300000D1C3E60D9B0E9A134332D00B9B0A9ADB
:1079400031002800B847431C00D1B7E61A239A46F5
:10795000002399460D9BA244002B00DB8FE03B00E7
:1079600037002E005546A2464C46994604E00D9B32
:1079700001345B42A3427EDD01232A00390030003E
:10798000C847431CF3D199E62268D20700D435E6F4
:10799000AFE6D34674E720680122C007C0D59A1C21
:1079A000BEE72268D30700D466E6C7E74C46350039
:1079B00022683E0047465FE6350054463E009A4640
:1079C0004F460D9A0E998A4202DB2368DB0709D5E0
:1079D0000B9B0A9A31002800B847431C00D16DE682
:1079E0000E990D9A8B1A9946524502DC52468A1A14
:1079F00091464A46002A0BDD42464B46524431002E
:107A00002800B847431C00D158E60E9B0D9A9B1ADC
:107A10004A46D2434946D21711401A2292460022C2
:107A200089465B1AA2449046002B00DC23E63B000B
:107A300037002E005546A2464446984607E00D9A68
:107A40000E9B01349B1A4A469B1AA3421CDD01235C
:107A50002A0039003000C047431CF0D12EE65B46B7
:107A6000002B02DA43232D22E2544B46472B08D940
:107A7000094B9846E3E5350054463E004F460E9BC1
:107A8000F3E5064B9846DAE55446350022683E0099
:107A90004746F1E5803301087C330108783301085B
:107AA000F0B54F464646D646C0B51F00089B9146E6
:107AB00098468A680B6906000C00934200DA1300AE
:107AC0004A4613604322A25C002A02D04A46013390
:107AD000136023689A065AD54B461B6806209A1CE9
:107AE0004B461A6023681900184208D1E168002546
:107AF0008A1A19218A461900A244002A3FDC43232E
:107B0000E35C5A1E93418A060AD53020E1184331BE
:107B1000087045215A1C615CA2184332023311706F
:107B20002200390043323000C047431C19D00623DD
:107B30002068A26821690340042B30D08A423ADDD4
:107B400000239946521A91441A34002502E0013567
:107B50004D4530DA0123220039003000C047431C74
:107B6000F5D1012040421CBC90469946A246F0BD8A
:107B70004B46E2681B680135D31AAB4220DD012376
:107B8000524639003000C047431CF1D1E9E70622D4
:107B90001A4212D04323E35C5A1E9341C0E74B467E
:107BA000E0681B68C31AD843C017184081468A4250
:107BB000C8DC002BC8DC0020D5E74A46126895E7F0
:107BC00043232168E35C5A1E93418A069DD4A7E7AC
:107BD000F0B557469A4643239C464E464546DE46F8
:107BE0008C446346E0B587B003930B7E9146804694
:107BF0000C00109A6E2B00D1D8E000D871E0732BE6
:107C000000D11AE100D881E0752B00D1FFE0782B7C
:107C100000D00BE10B6878204521605494498B46D5
:107C2000116840C91160180603D4580601D53604FE
:107C3000360CDA0702D52022134323601027002ECA
:107C400000D1C2E043230022E2546368A360002B0A
:107C500000DAC5E00422216891432160002E00D0A3
:107C600083E0002B00D0BDE0039D082F00D18CE005
:107C7000039B5B1B2361534605AA009321004B46DF
:107C80004046FFF70DFF431C22D023692A004946D6
:107C90004046D047431C1BD022680598E3689207F2
:107CA00000D47FE01A1A002A00DC7BE026000025C1
:107CB000193606E0E368059801351A1AAA4200DC75
:107CC00070E00123320049464046D047431CF1D1C1
:107CD0000120404207B03CBC90469946A246AB46C4
:107CE000F0BD632B00D184E01FD8002B69D0582B46
:107CF00000D09BE0452163545E4923688B461168A0
:107D000040C91160180600D48FE792E76F2B7ED030
:107D1000702B00D08AE02023096878200B4345218E
:107D20002360605452498B467AE7642B01D0692B5B
:107D30007CD111682368081D10601D064AD50A68A9
:107D40001600002A03DB4B4B0A279B467DE74322A4
:107D50002D21A15462687642A260002A02DB04222F
:107D600093432360434B0A279B46039D00E0060094
:107D700039003000FCF7B2F85B465B5C013D2B70CC
:107D8000BE42F4D2082F00D072E72368DB0700D48C
:107D90006EE763682269934200DD69E73023013DA5
:107DA0002B7065E7984295DA180093E71368096825
:107DB0001D1D606915601B680E0601D449064BD471
:107DC00018600023039D236155E7202322689A430E
:107DD000226037E75D06B2D500228E5E3200B0E742
:107DE000002EC2D15B4625001A7842234235E25468
:107DF0003BE713682500191D11601A684223E254FD
:107E0000413B4235236143230022E25433E71168AA
:107E100020680D1D1560060601D440061ED40E68AC
:107E20006F2B1DD0134B0A279B460BE742222500E0
:107E3000A354012342352361E5E71368191D11603E
:107E40001D6862680021280003F0A8FC00280BD000
:107E5000401B60602061D6E71880B2E70E88DFE73C
:107E6000044B08279B46EDE660682061CBE7C046DF
:107E700098330108843301080EB410B5040083B0B0
:107E8000002802D08369002B0BD006AB059AA168AD
:107E90002000019304F06EFA03B010BC08BC03B0DC
:107EA000184702F069FFF0E70FB410B50B4B82B032
:107EB0001C68002C02D0A369002B0BD005AB049AE0
:107EC000A1682000019304F055FA02B010BC08BC70
:107ED00004B01847200002F04FFFEFE70400002035
:107EE000836970B506000D00002B32D084682F4BDB
:107EF0009C423AD02E4B9C4244D02E4B9C4252D0B6
:107F0000A3891B0735D52369002B32D0A3682978B4
:107F1000013B002911D00135A360002B04DAA269CE
:107F20009A4231DC0A292FD023685A1C226019702A
:107F3000A3682978013B0029EDD1A360002B2CDA3E
:107F400022000A31300001F091FB431C17D00A20B7
:107F500070BD02F011FFB369B468002BC7D13000C7
:107F600002F00AFF114B9C42C4D17468A3891B071D
:107F7000C9D42100300001F0EFFB0028C6D0012059
:107F80004042E5E7B468BBE72200300001F06EFB39
:107F9000431CBBD101204042DAE723685A1C22600F
:107FA0000A221A70D3E7F468AAE7C046EC2B01084E
:107FB000CC2B0108AC2B010810B5034B010018684D
:107FC000FFF78EFF10BDC04604000020002370B5EF
:107FD000064C05000800236007F0ECFC431C00D0B1
:107FE00070BD2368002BFBD02B60F9E7DC16002066
:107FF0004A424A41802310B55200DB0000F002F8EB
:1080000010BDC046F0B54746CE4680B51E005A4B5F
:1080100083B01D68040088461700002D02D0AB69AC
:10802000002B5DD0554B9C4260D0554B9C425FD09D
:10803000544B9C4200D199E0022F05D0012F00D96A
:1080400096E0002E00DA93E02100280002F05AFDAD
:10805000616B002908D023004433994202D02800E4
:10806000FFF786F8002363630023A36163600C229B
:10807000A35E1A064FD4444A1340A381022F55D061
:1080800001AB6A462100280003F0F6FAA3890343F6
:10809000A381002E2ED1009E3000FEF7ADFF80465A
:1080A000002853D08022A3891343A381AB69002BFE
:1080B00026D00C22A35E012F02D101221343A381FB
:1080C00042462260226108229BB266611A401BD0A0
:1080D000DB0738D500237642A360A661002015E0B7
:1080E000280002F049FE254B9C429ED16C68A3E714
:1080F000AC68A1E74346002BCED0AB69002BD8D1AA
:10810000280002F039FED4E70020A26003B00CBCC6
:1081100090469946F0BD21692800FFF729F80C2206
:10812000A35E194A1340A381022FA9D10020022285
:108130001343A3810023A3602300473323602361FB
:1081400001236361E2E7A6600020DFE7009B994618
:10815000B34206D01800FEF74FFF4E468046002877
:10816000A0D101200C22A35E4042E0E7EC6863E767
:1081700001204042CAE7C04604000020EC2B010861
:10818000CC2B0108AC2B01085CF3FFFF10B580215C
:108190000400FFF743F86064002807D002000023C2
:1081A000803208C09042FCD1002010BD0120404226
:1081B000FBE7C046426C10B50023002A01D018002E
:1081C00010BDFFF7E3FF0300F9E7C04670B50500F7
:1081D0000C0016001F2907D8436C002B09D0A400FF
:1081E0001B1918681E6070BD1623036001204042F1
:1081F000F9E7FFF7CBFF002801D16B6CEFE7012017
:108200004042F0E770B505000C001F2920D8436CF0
:10821000002B0ED08A009B181A68002A09D0012A68
:1082200014D0511C0ED0002120001960904700206E
:1082300070BD280000F07AF822000100280000F04C
:1082400061F8F5E7162303600120F1E70020EFE76E
:108250001623036001204042EAE7C04670B50500DE
:108260000C001F291DD8436C002B10D0A2009B18B6
:108270001A68002A09D0511C11D0012A0DD0002102
:10828000200019609047002070BD0120FCE7FFF737
:108290007DFF002805D16B6CE8E70320F4E702209E
:1082A000F2E701204042EFE710B5034B01001868E8
:1082B000FFF7A8FF10BDC0460400002010B5044B16
:1082C0000A001B6801001800FFF780FF10BDC046C0
:1082D00004000020054B10B51B6800205A6C002AD2
:1082E00000D010BD1800FFF751FFFAE7040000208E
:1082F00010B5034B01001868FFF7B0FF10BDC04672
:1083000004000020002370B5074C05000800110090
:10831000236007F028FB431C00D070BD2368002BAE
:10832000FBD02B60F9E7C046DC16002010B507F043
:1083300018FB10BD10B5830727D00378002B26D07B
:108340000300032102E01A78002A1CD001330B42FB
:10835000F9D119680F4A104C8A188A4322420FD16A
:10836000043319680B4A8A188A43224208D104331D
:108370001968084A8A188A432242F1D000E0013382
:108380001A78002AFBD1181A10BD0300E1E700207B
:10839000FAE7C046FFFEFEFE8080808030B5002AEE
:1083A00039D003000B439B071FD1032A1DD9036853
:1083B0000C68A34231D1043A002A2CD01A4C1B4D30
:1083C0001C199C432C420CD025E003680C68A34286
:1083D00023D1043A002A1ED0134C1C199C432C4272
:1083E00019D104300431032AEFD804780D78013A0A
:1083F000A5420ED1002A0ED0002C0CD0012304E09F
:108400009A4208D00133002C05D0C45CCD5CAC424C
:10841000F6D0601B00E0002030BD04780D78013AF2
:10842000A542E9D0601BF7E7FFFEFEFE808080805A
:1084300070B516000D0003F0CBFD002E0DD06B23A0
:108440006A00520D9B1A002B07DD0024034A1B050E
:108450009D182B002200FDF73BFE70BD0000F03F91
:10846000F0B5DE464E4657464546E0B51E000023B1
:10847000A3B01E93444B81461B688B46180007939C
:1084800000249246FFF756FF0023049305945B46B1
:108490001D931C7808903D491D002D2C58D8A20032
:1084A0008A58974601220B922022190091430A0014
:1084B00000210891452A00D058E23300099A03436D
:1084C000134300D02FE25346002B01D05A461A60C6
:1084D000002600273000390023B03CBC9046994666
:1084E000A246AB46F0BD01220A925D1C1D955C7848
:1084F000002CE8D000230993302C2FD02300303BF0
:10850000DAB2092A01D900F07DFC002200270026FA
:10851000110038000CE087003F187F00D8190136A1
:10852000AA191D92AC5D2300303BDFB2092F2FD872
:10853000082EF0DD8A00521852009918EFE7002249
:108540000A92D2E701331D931C781D002D2CA6D969
:1085500000230A9300230993302CCFD16A78582A3C
:1085600001D100F0C4FC6B1C782A01D100F0BFFCE3
:108570001D001D932C780133302CF9D0002C00D134
:10858000AEE101230993B9E70C2D01088829010800
:108590008846070007991000089AFFF7FFFE002899
:1085A00000D185E120239C43452C00D1B6E1002376
:1085B000B34608930793089B079A9B1A0B93002EC8
:1085C00000D15E465C46102C00DD1024380004F01B
:1085D00001FC5B4604900591092B15DD2200C84B78
:1085E000093AD2009B181A685B68FDF771FD049088
:1085F0000591404604F0EEFB02000B00049805993B
:10860000FCF7F6FD049005915B460F2B00DDEEE1D3
:108610000B9B002B01D100F0F2FB0B9B002B01DC2C
:1086200000F0C0FC162B01DC00F000FD5A462523AB
:108630009B1A0B9A934201DB00F075FD5B461C1BF5
:108640000B9B9C4664440F2323400AD0AC49DB00BB
:10865000C91808684968049A059BFDF739FD04901C
:1086600005910F239C4300D06AE3002309935B46E6
:10867000009732002900484603F090F9834600280D
:1086800001D100F051FC0B9A07990898D3170C1AE6
:1086900023400E93D343DB171A40002398460793D9
:1086A0005346149215935B464846596803F0BAF84E
:1086B000031E089000D150E25A46594612690C3305
:1086C000023292000C311800FEF7AAFC049E059FAE
:1086D00020AB01931FAB009332003B00484603F0F0
:1086E000F7FC1E90002800D126E20121484603F045
:1086F000F5F90790002800D12FE21F9B002B00DA2C
:108700001EE20E9A149C9D180999209A5B1A362134
:108710009B188A1A7B49013B8B4200DBCEE1C91AC8
:10872000521A1F2900DD44E201238B4010930023DD
:108730001193AB189A46099BA4189C462B006444DD
:10874000554500DD5346A34200DD2300002B04DD28
:108750005246D21A9246E41AED1A0E9B002B00DD07
:10876000C7E15346002B00DDDDE10B9B002B00DD54
:10877000EAE1002C00DD12E2002D08DD2A00079955
:10878000484603F0F7FA0790002800D1E5E1089A7F
:108790001E99484603F078FB8046002800D1DCE1B2
:1087A000C36807990F930023C36003F053FB0028AD
:1087B00001DA00F0F5FC059B0C9301D100F074FC8C
:1087C0000799404603F0F0FC80230022DB050400FB
:1087D0000D00FBF793FC002800D174E10F9B002BE8
:1087E00000D1EEE1002300241093474B464D119336
:1087F0000C9B464A13409A46454B9A4500D113E2DA
:10880000099B002B29D0D423DB049A4525D8414A63
:10881000414B10981199FBF771FC002818D0109863
:108820001199FBF7FBFC002800D1D9E304F0D2FA40
:10883000109011910F9B002B00D0CCE380221206E8
:108840009446109B1893119B63441993189C199D8F
:10885000D6235246DB04EB189D1A3000390003F092
:10886000B7FB02000B0020002900FDF731FC3B00A4
:108870003200FCF7BDFC03000C0004930594099B37
:10888000002B04D1214B23409A4500D1F8E21E99D8
:10889000484603F009F80899484603F005F8079997
:1088A000484603F001F84146484602F0FDFFFAE66B
:1088B0001D9A089B9446002263441D931B780C96D6
:1088C00007921A00303A092A00D9EBE501300892E4
:1088D0001D99002A00D031E34B1C1D934B78F0E723
:1088E000002600275346002B01D01D9A1A600A9BD0
:1088F000002B00D1EEE5802109067B181F00E9E579
:10890000782D010802FCFFFF0000F03F0000F07F1F
:108910000000E07F0000C0FFFFFFDF4100230020D8
:108920000C9607930B931D9B9B4601331D935B464F
:108930005B782B2B00D1C8E22D2B00D167E1002200
:108940000E921A00303A092A00D968E1302B06D17C
:108950001D9B5A1C1D9213780132302BFAD0002235
:1089600008921A00313A082A00D8B3E1002E01D04B
:1089700000F0CEFC099A0243B2D10B9A002A00D033
:10898000A1E54E2B05D017DD692B18D06E2B00D03A
:1089900099E5C2491DA802F079FD002800D192E5B1
:1089A0001D9B1B78282B01D100F0E6FBBC4803F08F
:1089B0006BFE06000F0095E7492B00D083E5B9490F
:1089C0001DA802F063FD002800D17CE51D9BB6497F
:1089D000013B1DA81D9302F059FD002802D11D9BEB
:1089E00001331D93B14B0593049E059F7AE75B46C7
:1089F0001C1B0B9B9C466444002C00DD23E600D12D
:108A000033E60F23644223400AD004980599A84A0C
:108A1000DB00D3181A685B68FCF754FF04900591DB
:108A2000241100D121E61F2C42DC1023234009939E
:108A300001D06A23099328220498059990462A00B8
:108A40009C4B98444546002390460122224204D084
:108A50002A686B68FDF73CFB012364100835002C85
:108A6000F3D14546002B01D004900591099B002BC2
:108A700015D0049B059C6B236100490D22005B1AF5
:108A8000002B0CDD1F2B01DC00F01EFC00210491EB
:108A9000342B01DC00F026FCDC239B040593002230
:108AA000049805990023FBF719FB002800D1DEE5A7
:108AB00022234A4600261360002713E70023119360
:108AC0000133109335E67C4B002220002900FDF78E
:108AD000FFFA0F9B10901191002B00D092E08022A2
:108AE00012060B009446634412901393129C139D3C
:108AF0007EE61A000799484603F0CCF80790002854
:108B00002BD01E9A0799484602F0FEFF0C900028D1
:108B100023D01E99484602F0C7FE0C9B1E93534675
:108B2000002B00DC21E652461E99484603F022F94C
:108B30001E90002800D018E6159B04009A4610E00D
:108B4000149A0E9DD41ADFE5149A0899484603F04A
:108B5000A1F80890002800D00BE6159B9A461E9BB2
:108B60001C0022234A461360504B059300230493B4
:108B7000049E059F2100484602F096FE089948464B
:108B800002F092FE0799484602F08EFE594648468A
:108B900002F08AFE4146484602F086FEA2E6220026
:108BA0000899484603F0E6F80890002800D0E3E56D
:108BB000D3E74249CB1A0121994001231191109327
:108BC000B7E5049B002B5BD10C9B1B035ED10022FD
:108BD0003B4B20002900FBF787FA002800D031E248
:108BE0000022354B20002900FDF772FA8022120680
:108BF0000B0094466344109011911A901B931A9C99
:108C00001B9DF5E5109A119B129213936EE70123B9
:108C10000E935B4602331D935B469B7891E65A4662
:108C20001D9200220892A1E6264A0C9B94466344BA
:108C300005930C940D95049C059D20002900169623
:108C4000179703F0C5F902000B000C980D99FDF77A
:108C50003FFA22002B00FCF7CBFA144B1A4A04907F
:108C600005910B40934266D9184A974202D1731C72
:108C700000D172E7154B059301235B42049306E68E
:108C8000012B03D10C9B002B00D128E30023109370
:108C90000B4B00240E4D1193AAE5C046B8330108D2
:108CA000CC340108AC330108B03301080000F07F78
:108CB000782D0108582A01080000E03FE2FBFFFF81
:108CC0000000F03F0000B0FCFFFF9F7CFFFFEF7F44
:108CD0000000F0BF1D99303B1C004B1C1D934B78CE
:108CE00008911A00303A092A00D96EE18A1C84469C
:108CF0001900A3001B191D925B005B181178303B13
:108D00001C000B00303B10000132092BF1D96246E8
:108D10008446100062460B000899521A082A00DCAB
:108D200053E1CD4A08920E9A002A00D11EE6089A15
:108D3000524208921AE6D4239B04CC1805949EE56F
:108D40002633FF339C4200DDEEE02411012C00DCD1
:108D500066E204980599C14B0022984609930C9746
:108D600000234746A84615000122224204D03A6853
:108D70007B68FDF7ADF90123013564100837012C3C
:108D8000F2D12C000C9F4546002B01D00490059198
:108D9000B34A059B944663440593099BE1009C46B6
:108DA000049A059B614408684968FDF791F9AD4A4A
:108DB000AD4C1300049005910B40A34200D9D4E1BF
:108DC000AA4A934200D8C6E1A94B059301235B420E
:108DD0000493002309934AE4A649209B8C460493FC
:108DE000A54A219B1A401F9B63441B051A43059209
:108DF000330704D58023059A1B061A430592049E67
:108E0000059F6FE5089A07992800FFF7C7FA0C90AD
:108E1000002800D06EE21D99089B8C4663441A001E
:108E200001211D931B78891A0020302B05D1501881
:108E300001321D921378302BF9D01A00313A082AEA
:108E400015D83022524294469C4463460893431CF2
:108E5000079300231D9D0027290001269846BB008B
:108E6000DF19089B7F009C460020674434E5002200
:108E7000079290460132002600270B92FFF714FB61
:108E8000109E119D3000290003F034FF03F06EFFA7
:108E900002000B0030002900FDF786FB049A0F9BAF
:108EA00024031343240B06000F001C43734A0FD105
:108EB000734BFBF719F9002800D1E8E4159B049ED9
:108EC000059F9A461E9B1C0054E600230E93A0E6C5
:108ED0006C4BFBF709F90028F0D16B4A6B4B300063
:108EE0003900FBF715F9002800D1D0E4E6E70A9B2A
:108EF000029601931EAB0093654A1FAB1DA948461D
:108F000001F0FCFF07240600044000D1E8E4062C31
:108F10006CD153460135002B01D1FFF7D9FA1D6002
:108F200000260027FFF7D6FA22234A4613604D4B4E
:108F3000059300230493049E059FD3E4079B741CB0
:108F40009C46844463460793012800D1E4E1130062
:108F500080199446441E4246984606E0BB00DF193D
:108F60007F00731C1E00A34208D0082EF6DD731C80
:108F7000102BF7DC9600B2185200F3E76446089411
:108F80004446060090462200082B00DC67E70020DC
:108F9000102E00DDA0E443469B00434490465B0056
:108FA000984499E40B9B163300DA20E50498059960
:108FB000079B089A9C1A374BE4001B191A685B68D8
:108FC000FCF780FC06000F008CE4234A08949442CE
:108FD00000DCA8E6A6E6109A119B1892199335E4D6
:108FE000002310932C4B1193FFF724FC1E9A002AA8
:108FF00007D0352120A803F02BF91E99484602F02E
:1090000053FC052C00D9F3E6244BA4001B599F46C2
:10901000144B0593ECE6209B0493219B0593E7E614
:109020001F4B059301235B420493E1E61949DB00E2
:10903000C91808684968049A059BFDF749F80600B5
:109040000F004FE40023174C1A931B940023109336
:109050000E4B1193D3E5C0461F4E0000502D010862
:109060000000B0FC0000F07F0000A07C0000907CBD
:10907000FFFFEF7F33040000FFFFEFFF9535A09463
:10908000FFFFCF3FFFFFDF3F35E5AF350000E03F9B
:10909000582A0108782D01080000F03F402A0108F5
:1090A000FFFFFF7F0000E0BF159B0F9A9A460C9BC5
:1090B0001B031B0B002A00D1A7E0994A934200D161
:1090C000B3E0119B002B00D1A4E00C9A134210D006
:1090D000049805990F9B099A002B00D1CBE0FFF76C
:1090E000A7F902000B0030003900FCF781F80600F8
:1090F0000F001E9B1C00099B002B00D13AE5894BF9
:109100003000179300231693169A179B3900FCF72B
:10911000DFFF030006000F000B4300D02AE54A469C
:109120002233136026E55B460F247F4DE41AE100ED
:109130006918049A059B08684968FCF7C9FF0B9BEE
:109140001C1BE4002C1922686368FCF7C1FF0600B1
:109150000F00FFF7C7FBD42292040B009446634430
:10916000059300230993FFF782FA222349460B60F7
:1091700000230592049342E66C4920AA14311DA8ED
:1091800002F09AF9052801D0FFF710FC219B684AEC
:109190001A43209B05920493049E059FFFF7A2FBB0
:1091A000159B0499059A9A460F9B0B43A1D10C92EB
:1091B00013039ED15E4B1340D622D204934298D91A
:1091C00043465B69002B03D143461B69012B90DDAD
:1091D00041460122484602F0CDFD0799804602F043
:1091E00039FE002800DC84E7099B002B5CD00C9A38
:1091F0004F4B1340D622D204934255DCDC2292041A
:10920000934249DD1E9B1C0079E7049A134300D06A
:1092100057E7E9E7109B049A134200D169E757E743
:1092200000231C00434B0993B2E5099B049A002BD1
:1092300052D00C993E4B0B40D421C9048B424BD8E1
:109240006B211B0DC91A01235B428B409A4200D04F
:1092500037E7394B0C99994257D0354B0C9A1A4045
:109260001300802252039446634405930023049321
:10927000049E059F3DE7FFF7DBF802000B0030007E
:109280003900FDF791F90022002306000F00FAF7DC
:1092900025FF002800D12CE722234A4613601E9B9D
:1092A00000261C00002765E4214B0C9A1A4013008D
:1092B000224A94461A4A63441A4301235B420592A8
:1092C0000493049E059F14E7012252429A40049B96
:1092D00013400493FFF7E3FB01235B42B6E7159BC2
