:100000000C9434000C946D000C9446000C94460043
:100010000C9446000C9446000C9446000C94460048
:100020000C9446000C9446000C9446000C94460038
:100030000C9446000C9446000C9446000C94460028
:100040000C9448000C9446000C9446000C94460016
:100050000C9446000C9446000C9446000C94460008
:100060000C9446000C94460011241FBECFEFD8E03C
:10007000DEBFCDBF21E0A0E0B1E001C01D92A33002
:10008000B207E1F70E947C000C9499000C940000E8
:100090001F920F920FB60F9211248F939F9380910E
:1000A0000101909102010196909302018093010158
:1000B00086E086BD9F918F910F900FBE0F901F908D
:1000C00018951092020110920101209101013091C6
:1000D000020128173907C8F308951F920F920FB62F
:1000E0000F9211248F9381E0809300018F910F90E4
:1000F0000FBE0F901F90189580E284B915B883E069
:1001000085BD86E086BD81E080936E0092E090938D
:1001100069008DBB7894C0E2809100018823E1F3EF
:1001200010920001C5B988EE93E00E94610015B8F5
:06013000F3CFF894FFCFAD
:00000001FF
