S01C0000536D6172744661726D535433325F76312E312E372E73726563A5
S31508003800004002204DF80008A5F40008A7F40008B7
S31508003810000000000000000000000000000000009A
S31508003820000000000000000000000000A9F40008E5
S315080038300000000000000000ABF40008ADF400082A
S315080038409DF800089DF800089DF800089DF80008F6
S315080038509DF800089DF800089DF800089DF80008E6
S315080038609DF800089DF800089DF800089DF80008D6
S315080038709DF800089DF800089DF800089DF80008C6
S315080038809DF800089DF800089DF800089DF80008B6
S315080038909DF800089DF800089DF800089DF80008A6
S315080038A09DF800089DF800089DF8000805D700084F
S315080038B015D7000825D700089DF800089DF80008C8
S315080038C00448054B10B5834203D0044B002B00D0A7
S315080038D0984710BDBC070020BC0700200000000068
S315080038E006480749091A8B10C90FC91810B5491097
S315080038F003D0044B002B00D0984710BDBC0700200E
S31508003900BC0700200000000010B5074C2378002BE8
S3150800391009D1FFF7D5FF054B002B02D0044800E07C
S3150800392000BF0123237010BDC0070020000000005F
S31508003930A8270108054B10B5002B03D004490548F4
S3150800394000E000BFFFF7CCFF10BDC0460000000036
S31508003950C4070020A827010810B500F025F810BDF7
S3150800396070B5041C00F0A6F80E4B051C1B785BB25C
S3150800397001330BD0211C201C01F080FB002805D147
S315080039800021201C00F0F6FB002801D1281C70BD80
S3150800399003F0E4FA212300210360081C00F0D2FE9C
S315080039A0051CF3E700000020F8B5FF254A00031CB4
S315080039B05208081CED05AA422BDC59009C4649080A
S315080039C0A94226DCFE24A405A04234D00224871787
S315080039D03C40DF0F3C4300291FD0002A24D0AA42CE
S315080039E031D0A94220D08A1AD2153C2A29DC0028CF
S315080039F034DA3C3232DA0020012C40D0022C36D0A0
S31508003A00002C09D0244900F0FFFC244901F088F96C
S31508003A1002E0191C00F0F8FCF8BD022C09D0181CAD
S31508003A20032CF9D11E48F7E76346002B07DB1D4830
S31508003A30F2E71A48F0E7181C00F094F8ECE71A4881
S31508003A40EAE71848D8E7013C91421DD00020022C2D
S31508003A50E2D8164BA4001C19E068DDE7011C181C07
S31508003A6000F070FE00F0A4F900F07CF8C4E70A49FB
S31508003A7000F0CAFC011C094801F052F9CCE7802382
S31508003A801B069C466044C7E7022C03D8074BA400D4
S31508003A90E058C1E70648BFE72EBDBB33DB0F4940F8
S31508003AA0DB0F49C0DB0FC93FDB0FC9BF0828010878
S31508003AB0DB0F493FFF21420070B50300041C520882
S31508003AC0C9058A423AD2002A37D000283FDBC515F5
S31508003AD001420BD1802109040A00024001423DD16E
S31508003AE05B00100001320B42FAD02D1A5B025A0A0B
S31508003AF080232E001B047F3E1343EA0725D5802228
S31508003B0019210025002476105B005204A01898425B
S31508003B1002DC84181B1AAD1801395B00520800290B
S31508003B20F4D1002B02D0012301359D43FC239B05CC
S31508003B309C4668106044F605301870BD011C00F0FC
S31508003B40C9FF211C00F060FCF7E75B00D7E7011C02
S31508003B5001F0E6F8011C00F0F5FDEEE70120404211
S31508003B602D1AC3E7F0B5A123C6464500060000B5E1
S31508003B70041C6D08DB059D420BDBFF23DB059D421C
S31508003B8000DD7BE0002800DC8BE0754880BCB84689
S31508003B90F0BD744B9D4200DD85E0C4239B059D4224
S31508003BA070DB01235B429846211C201C00F092FF23
S31508003BB0011C071C00F08EFF6B49051C00F08AFFEC
S31508003BC06A4900F021FC291C00F084FF684900F0CE
S31508003BD01BFC291C00F07EFF664900F015FC291C19
S31508003BE000F078FF644900F00FFC291C00F072FF12
S31508003BF0624900F009FC391C00F06CFF6049071C9B
S31508003C00281C00F067FF5F4901F08AF8291C00F0BC
S31508003C1061FF5D4901F084F8291C00F05BFF5B49F0
S31508003C2001F07EF8291C00F055FF594901F078F893
S31508003C30291C00F04FFF4346011C013351D043466F
S31508003C409B009846381C00F0DFFB211C00F042FF61
S31508003C504346504DEB18196901F062F8211C01F032
S31508003C605FF84346011C585901F05AF8002E00DB4C
S31508003C708CE780231B069C46604487E7011C00F0FE
S31508003C80C3FB83E7444900F0BFFBFE21890500F02A
S31508003C9085FA0300201C002B00D077E7013B9846E5
S31508003CA082E73E4872E700F083F83D4B041C9D42CC
S31508003CB022DC3C4B9D4240DC011C00F0A5FBFE21AA
S31508003CC0890501F02DF88021051CC905201C00F086
S31508003CD09BFB011C281C00F035FD0023041C98469C
S31508003CE062E7381C00F090FB211C00F0F3FE011C73
S31508003CF0201C01F015F849E72B4B9D4215DCFF21E6
S31508003D00890501F00DF8FF21051C8905201C00F026
S31508003D10E1FEFE21890500F077FB011C281C00F056
S31508003D2011FD0223041C98463EE7011C1F4800F0BB
S31508003D3009FD0323041C984636E7FE21890500F091
S31508003D40EFFFFE21051C8905201C00F05DFB011C08
S31508003D50281C00F0F7FC0123041C984624E7C046FB
S31508003D60DB0FC93FFFFFDF3ED769853C59DA4B3D7C
S31508003D70356B883D6E2EBA3D2549123EABAAAA3E42
S31508003D8021A215BD6BF16E3D95879D3D388EE33DAD
S31508003D90CDCC4C3E20280108CAF24971DB0FC9BFB9
S31508003DA0FFFF973FFFFF2F3FFFFF1B40000080BF2D
S31508003DB0400040087047C046004870470000C07F72
S31508003DC002B4714649084900095C49008E4402BCA0
S31508003DD07047C04603B47146490840004900095E69
S31508003DE049008E4403BC7047002243088B4274D3B3
S31508003DF003098B425FD3030A8B4244D3030B8B42DE
S31508003E0028D3030C8B420DD3FF22090212BA030CE6
S31508003E108B4202D31212090265D0030B8B4219D3C7
S31508003E2000E0090AC30B8B4201D3CB03C01A5241E7
S31508003E30830B8B4201D38B03C01A5241430B8B422F
S31508003E4001D34B03C01A5241030B8B4201D30B0318
S31508003E50C01A5241C30A8B4201D3CB02C01A52413F
S31508003E60830A8B4201D38B02C01A5241430A8B4202
S31508003E7001D34B02C01A5241030A8B4201D30B02EB
S31508003E80C01A5241CDD2C3098B4201D3CB01C01A05
S31508003E90524183098B4201D38B01C01A524143090F
S31508003EA08B4201D34B01C01A524103098B4201D3FD
S31508003EB00B01C01A5241C3088B4201D3CB00C01A6A
S31508003EC0524183088B4201D38B00C01A52414308E2
S31508003ED08B4201D34B00C01A5241411A00D2014607
S31508003EE0524110467047FFE701B5002000F0F0F890
S31508003EF002BDC0460029F7D076E7704703460B4354
S31508003F007FD4002243088B4274D303098B425FD3C4
S31508003F10030A8B4244D3030B8B4228D3030C8B42F0
S31508003F200DD3FF22090212BA030C8B4202D31212D6
S31508003F30090265D0030B8B4219D300E0090AC30BAB
S31508003F408B4201D3CB03C01A5241830B8B4201D358
S31508003F508B03C01A5241430B8B4201D34B03C01A41
S31508003F605241030B8B4201D30B03C01A5241C30AB9
S31508003F708B4201D3CB02C01A5241830A8B4201D32A
S31508003F808B02C01A5241430A8B4201D34B02C01A14
S31508003F905241030A8B4201D30B02C01A5241CDD2B9
S31508003FA0C3098B4201D3CB01C01A524183098B4204
S31508003FB001D38B01C01A524143098B4201D34B01ED
S31508003FC0C01A524103098B4201D30B01C01A524150
S31508003FD0C3088B4201D3CB00C01A524183088B42D7
S31508003FE001D38B00C01A524143088B4201D34B00C0
S31508003FF0C01A5241411A00D2014652411046704732
S315080040005DE0CA0F00D04942031000D34042534036
S3150800401000229C4603098B422DD3030A8B4212D3F6
S31508004020FC22890112BA030A8B420CD38901921128
S315080040308B4208D3890192118B4204D389013AD065
S31508004040921100E08909C3098B4201D3CB01C01A3A
S31508004050524183098B4201D38B01C01A524143094D
S315080040608B4201D34B01C01A524103098B4201D33B
S315080040700B01C01A5241C3088B4201D3CB00C01AA8
S31508004080524183088B4201D38B00C01A5241D9D2C0
S3150800409043088B4201D34B00C01A5241411A00D241
S315080040A00146634652415B10104601D34042002B3D
S315080040B000D54942704763465B1000D3404201B5BC
S315080040C0002000F005F802BD0029F8D016E7704771
S315080040D07047C0468446100062468C4619006346FF
S315080040E000E0C0461FB501F069FF002801D4002191
S315080040F0C8421FBD10B501F0B9FE4042013010BDDF
S3150800410010B501F05BFF002801DB002010BD01207F
S3150800411010BDC04610B501F051FF002801DD002092
S3150800412010BD012010BDC04610B501F0E1FE002803
S3150800413001DC002010BD012010BDC04610B501F0FD
S31508004140D7FE002801DA002010BD012010BDC046A8
S31508004150844608006146FFE71FB500F077FC002893
S3150800416001D40021C8421FBD10B500F003FC40422F
S31508004170013010BD10B500F069FC002801DB0020F5
S3150800418010BD012010BDC04610B500F05FFC002828
S3150800419001DD002010BD012010BDC04610B500F09D
S315080041A00FFC002801DC002010BD012010BDC04610
S315080041B010B500F005FC002801DA002010BD01202A
S315080041C010BDC046002B11D1002A0FD1002900D1FD
S315080041D0002802D00021C943080007B4024802A1FA
S315080041E04018029003BDC046E9FEFFFF03B46846C7
S315080041F001B5029800F03CF8019B9E4602B00CBC43
S315080042007047C0469E2110B5C905041CFFF7D0FFAC
S31508004210002803D1201C00F047FF10BD9E21201C5A
S31508004220C90500F07DFD00F03FFF80231B069C4674
S315080042306044F2E770B500220C4B04000D00FFF74E
S315080042407DFF002804D12000290002F019FD70BD69
S31508004250064B00222000290002F080F902F010FD2A
S3150800426080231B069C466044F1E7C0460000E041F7
S31508004270F0B557464E464546DE46E0B504000D0005
S315080042809246994683B08B4230D82DD0494650463F
S3150800429002F04AFE29000600200002F045FE331A05
S315080042A09846203B9B4633D45A465346934042464B
S315080042B01F00534693401E00AF423AD8AF4200D182
S315080042C078E05B46A41BBD41002B00DA75E00022AE
S315080042D000230092019301235A4693400193012338
S315080042E042469340009328E08242CFD90022002319
S315080042F0009201930C9B002B01D01C605D60009816
S31508004300019903B0F0BCBB46B246A946A046F0BD2B
S31508004310424620239B1A5246DA40414613004A4633
S315080043208A40170042461F43534693401E00AF4239
S31508004330C4D900220023009201934346002BD9D00A
S31508004340FB0772081A4346467B080EE0AB4201D1CA
S31508004350A2420CD8A41A9D41012024196D410021BE
S31508004360013E24184D41002E06D0AB42EED9013E3F
S3150800437024196D41002EF8D1009801995B46001961
S315080043806941002B24DB2B005A464446D3402A00B9
S31508004390E2401C005B461500002B2ADB26009E40E7
S315080043A0330026004746BE403200801A99410090E5
S315080043B001919FE7A342BCD883E742462023002108
S315080043C09B1A0022009101920122DA40019286E7A7
S315080043D0424620239B1A2A0046469A402300F34069
S315080043E0444613432A00E2401C005B461500002B96
S315080043F0D4DA42462F002023260097409B1ADE4037
S315080044003B003343CDE7C046F0B5C64643025B0AD8
S315080044104E0245004F00DA00C40F9C46700A9046CB
S3150800442000B52D0E3F0EC90FB6098C424BD0EA1BBC
S31508004430002A36DD002F61D0FF2D00D1ADE08023A4
S31508004440DB041E431B2A00DCD3E001204346181A6E
S31508004450430100D48CE080018709380002F046FD4C
S3150800446005388740854200DCB6E02D1AB348384047
S31508004470430704D00F230340042B00D00430430124
S3150800448000D478E06A1CFE2D65D08001430A9C465C
S31508004490D2B26346D0051843E407204380BCB84629
S315080044A0F0BD002A35D07A1B002D00D0AFE0434678
S315080044B0002B00D1A7E0531E012A00D12FE1FF2AC5
S315080044C069D01A00AAE0E91B002970DD002F37D051
S315080044D0FF2D62D08023DB041E431B2900DCB0E0DD
S315080044E001204044430143D50135FF2D33D0012334
S315080044F0934A0340400810401843B9E7002E00D1FC
S3150800450083E0511E012A00D1D8E0FF2A45D00A00CF
S3150800451098E7FE276A1C174200D086E0002D00D0D7
S31508004520B7E04346002B00D1F3E00022002EB0D0BE
S31508004530981B430100D4FAE043460C00F01A97E7AB
S31508004540002E00D1C8E04A1E012900D1AEE0FF299D
S3150800455023D01100C1E70023FF229C4699E7FE21DC
S315080045606A1C114277D0FF2AF5D015004644700818
S31508004570430700D07EE7C308FF2D0ED05B025B0A17
S315080045809C46EAB285E7002E07D08022D203134262
S3150800459003D0104201D10C000300002BDBD0802091
S315080045A0C00318434002430A9C46FF2271E70029CC
S315080045B0D5D07A1B002D60D14346002B24D0531E3C
S315080045C0012A73D0FF2AE7D01A001B2A00DC85E0EF
S315080045D001203D00801985E720233A00451B380055
S315080045E00135EA405D1BA840431E9841002510434B
S315080045F03EE7202330009B1A31009840D140431EE5
S315080046009841084322E70C0003001500B4E7FF2F82
S31508004610C1D080234046DB04184380461B2A51DD5F
S3150800462001200C003D00301A12E743469F1B7B0110
S315080046302BD4002F00D010E70023002400229C462C
S3150800464027E7202332003000CA40591A8840431E03
S315080046509841104345E7002D4AD14346002B63D0C5
S315080046600022002E00D114E730004044430100D454
S315080046707EE7324B013518407AE7FF2F8CD080232E
S315080046804146DB04194388469FE743460C00F71A60
S31508004690E3E64246002A00D075E7002E00D07AE706
S315080046A08023DB0300249C46FF22F2E630004044C8
S315080046B00125430100D45BE7022518E74346012597
S315080046C0981BC5E6202344464046D4409A1A904093
S315080046D0431E98412043A4E70D004DE72023414699
S315080046E04046D1409A1A9040431E9841084370E7C5
S315080046F04246002A00D14FE7002E00D14DE780221E
S31508004700D203134200D148E7104200D045E7030020
S3150800471043E7002E90D00C0084460022B9E64346B3
S315080047200C00F01A013593E684460022B1E600280B
S3150800473000D01DE7002300249C46AAE6FFFFFFFBE6
S31508004740FFFFFF7DF0B54F464646D6464502C0B543
S3150800475047000C1C6D0A3F0EC60F002F00D170E0F3
S31508004760FF2F00D175E0EB008025ED041D430023E3
S3150800477099469A467F3F6002430A984663001B0E95
S31508004780E40F002B4ED0FF2B46D04246D0008022A5
S31508004790D2040243904600227F3B3100FF1A4B4663
S315080047A06140C9B213430F2B00D9B5E06E489B0090
S315080047B0C3589F46002398462600454692465346C8
S315080047C0022B00D189E0032B00D19EE0012B18D0E3
S315080047D03B007F33002B69DD6A0704D00F222A408D
S315080047E0042A00D004352A0103D5604B1D403B003E
S315080047F08033FE2B00DD70E0AD016D0AD8B202E011
S315080048000E0000200025C0052843F6073043E0BC0B
S31508004810BA46B146A846F0BD4346002B3FD1022210
S31508004820FF3F03E04346002B2DD1012231004B46C2
S315080048306140C9B213430F2B34D84D489B00C35867
S315080048409F46002D13D104239946033B00279A4619
S3150800485091E7002D05D108239946063BFF279A467E
S3150800486089E70C239946093BFF279A4683E72800E0
S3150800487002F03CFB7627431F9D4000237F42994662
S315080048809A463F1A77E7404602F030FB4246431FF6
S315080048909A4076235B4290461B1A00227DE7FF2347
S315080048A003227AE70E00FF200025ACE70120C01A94
S315080048B01B28A6DC9E372A00BD40C2406B1E9D41C0
S315080048C015436B0704D00F232B40042B00D0043567
S315080048D06B0144D50120002595E7FF20002592E7C6
S315080048E080250026FF20ED038DE7002398468020CB
S315080048F0C003054209D04346034206D1454605434F
S315080049006D022600FF206D0A7DE78020C00305435F
S315080049106D02FF206D0A76E742466B01500183421D
S3150800492019D21B220025013F01261C006D005B00E1
S31508004930002C01DB984201D81B1A3543013A002A9C
S31508004940F3D15A1E93411D433B007F330E00002BC3
S3150800495000DD41E7AAE71A2201251B1AE4E7AD01A3
S3150800496000206D0A4FE7C04640280108FFFFFFF701
S315080049708028010870B5420045024E024C00C30F5C
S315080049806D0A0120120E760A240EC90FFF2A06D0D8
S31508004990FF2C03D0A24201D1B54206D070BD002D2E
S315080049A0FCD1FF2CFAD1002EF8D18B4206D001207B
S315080049B0002AF3D12800431E9841EFE70020EDE7CF
S315080049C070B5420045024E024C00C30F6D0A120E26
S315080049D0760A240EC80FFF2A1BD0FF2C0ED0002AF9
S315080049E01BD1002C01D1002E1CD0002D0CD08342E7
S315080049F01CD00221581E0840013870BD002E22D155
S31508004A00002AF4D1002DF2D10028F6D10120404227
S31508004A10F3E7002D17D1FF2CF0D0002CE7D1002E9C
S31508004A20E5D1E6E70020002DE7D0E2E7A24205DC63
S31508004A30EADBB54202D8E7D30020DEE74342584115
S31508004A4040000138D9E702204042D6E770B5420057
S31508004A5045024E024C00C30F6D0A120E760A240E4A
S31508004A60C80FFF2A0BD0FF2C0DD0002A1FD1002C0F
S31508004A7016D1002E14D10020002D10D009E0002DEB
S31508004A800CD1FF2C13D1002E08D1002A08D083425E
S31508004A9012D00221581E0840013800E0022070BDDD
S31508004AA0002DF4D10028FAD101204042F7E7002C66
S31508004AB0EDD1002EEBD1ECE7A24205DCF2DBB542E4
S31508004AC002D8EFD30020EAE74342584140000138B4
S31508004AD0E5E7C046F0B54F464646D6464402450089
S31508004AE0C0B5640A0F1C2D0EC60F002D00D18DE02F
S31508004AF0FF2D00D192E00023802099469A46E400D3
S31508004B00C00404437F3D7802430A98467B001B0E87
S31508004B10FF0F002B00D170E0FF2B00D186E0424644
S31508004B20D00080227F3BED180023D2040243904632
S31508004B309C4631004B467940681C0F2B1CD8764A98
S31508004B409B00D3589F4639004446E2465346022BFB
S31508004B500FD0032B00D1D7E0012B37D1002000243A
S31508004B60C0052043C9070843E0BCBA46B146A84673
S31508004B70F0BDFF200024F3E7260C2404220C44464B
S31508004B802404240C434627001B0C574374435A43FA
S31508004B905E4312193B0C9B189C4203D98022520291
S31508004BA0944666443F041A043F0CD2199401671EC2
S31508004BB0BC411B0C920E9B1914439B011C431B0101
S31508004BC000D49BE0012362081C40144302007F3294
S31508004BD0002A64DD630704D00F232340042B00D08A
S31508004BE00434230103D502004C4B80321C40FE2AB4
S31508004BF0BFDCA401640AD0B2B2E74346002B3DD11C
S31508004C004A4601331A4391469C4692E7002C29D11D
S31508004C1004239946033B00259A4674E7002C1BD1CA
S31508004C2008239946063BFF259A466CE74346FF3517
S31508004C30002B0BD102234A461A4391469C4678E735
S31508004C4053463100022B00D083E792E703234A46F6
S31508004C501A4391469C466CE70C239946093BFF2567
S31508004C609A4650E7200002F041F97625431F9C40FA
S31508004C7000236D4299469A462D1A44E7404602F0AB
S31508004C8035F94246431F9A4000232D1A90469C4602
S31508004C90763D4EE780240021FF20E40360E70123E8
S31508004CA09B1A1B2B00DD59E722009E30DA40844010
S31508004CB01300621E94411C43630704D00F2323404C
S31508004CC0042B00D0043463011AD50120002447E7D9
S31508004CD08020C003044209D04346034206D1444615
S31508004CE0044364023900FF20640A39E78020C003C0
S31508004CF0044364023100FF20640A31E7280065E7AF
S31508004D00A4010020640A2BE78020C0030443640240
S31508004D10FF20640A24E7C046C0280108FFFFFFF702
S31508004D20F8B5CE46474643025B0A4E02DA00944679
S31508004D30720A914645004A0080B52D0E1F00C40F21
S31508004D40120EC90FB609FF2A5BD0012041408C42DA
S31508004D5039D0A81A00285ADD002A6AD0FF2D00D1BA
S31508004D60D9E08022D20416431B2800DCE9E00120A2
S31508004D706346181A430100D4B4E080018709380055
S31508004D8002F0B4F805388740854200DCCCE02D1ADD
S31508004D90B5483840430704D00F230340042B00D0FE
S31508004DA00430430100D4A0E06A1CFE2D00D18DE03A
S31508004DB08001470AD2B2D0053843E4072043C0BC75
S31508004DC0B946B046F8BDA81A8046002845DD002A2F
S31508004DD070D0FF2D00D19EE08023DB041E4343469E
S31508004DE01B2B00DCD2E00120604443017AD5013553
S31508004DF0FF2D6BD001239D4A0340400810401843FD
S31508004E00C8E7002E20D08C4223D02800FF3800287F
S31508004E1039D0571B002D00D09DE06346002B00D1EA
S31508004E20DBE07B1E012F00D10DE1FF2F71D01F00A3
S31508004E3098E0002E00D1A7E0421E012800D1E6E046
S31508004E40FF2868D010008FE701204140A14200D01A
S31508004E507FE7FF2040428046A8444046002838D0D5
S31508004E60511B002D00D1AEE0FF2A00D1DFE08023E0
S31508004E706046DB04184384461B2900DCD9E0012080
S31508004E8015008019B1E7FE206A1C104271D1002D69
S31508004E9000D0A6E06346002B00D1D9E00022002E00
S31508004EA000D188E7981B430100D4E1E063460C0073
S31508004EB0F01A6FE7002E00D1B7E00200013A012888
S31508004EC000D19CE0FF2826D0904688E7FF220027DD
S31508004ED071E7FE206A1C104264D0FF2AF6D015003E
S31508004EE066447008430700D056E7C308FF2D12D062
S31508004EF05B025F0AEAB25EE76246002A00D196E0E4
S31508004F00002E08D08022D203134204D0484610420D
S31508004F1001D10C004B46002BD8D08027FF031F4336
S31508004F207F02FF227F0A46E720233A00451B380006
S31508004F300135EA405D1BA840431E984100251043F1
S31508004F4028E720231B1A32009E40C2403000431E29
S31508004F50984110430CE7FF2ADBD080236046DB0428
S31508004F60184384461B2F56DD01200C001500301A05
S31508004F7000E763469F1B7B013DD4002F00D0FEE669
S31508004F8000240022002716E70500AFE73200434653
S31508004F904146DA4020235B1A9E403000431E984162
S31508004FA0104321E7002DA7D16346002B59D00022D4
S31508004FB0002E00D1FFE630006044430192D52A4B0B
S31508004FC0013518408EE76346002B47D04B1E012952
S31508004FD015D0FF292BD019004EE70C004B463D0093
S31508004FE084E76246002A8BD1002E92D180270024BE
S31508004FF0FF22FF03DFE663460C00F71ABFE6300020
S3150800500060440125430100D46CE70225F2E66346B5
S315080050100125981BAEE6202364466046FC40DF1B4C
S31508005020B840431E984120439FE705005EE74B467C
S3150800503071E7202365466046CD40591A8840431ECD
S31508005040984128431CE763460C000125F01A91E6AF
S31508005050002E95D00C004F460022ACE64B460D00BC
S3150800506044E74F460022A6E6FFFFFFFBFFFFFF7D52
S31508005070002800D036E7002400279CE643024A02AF
S31508005080400049005B0A520A090E000EFF2806D0A6
S315080050900020FF2902D1531E9A4110007047FE389E
S315080050A0002BFBD1F4E7C04641024200C30F490A70
S315080050B00020120E7E2A03DD9D2A02DD094A981871
S315080050C07047802000040143952A07DC9620821A3F
S315080050D0D1404842002BF3D10800F1E7963A9140B7
S315080050E0F7E7C046FFFFFF7FF8B5002813D0C317C0
S315080050F0C6185E40C40F300001F0F8FE9E23050076
S315080051001B1A962B0FDC082801DD083DAE407602F7
S31508005110760AD8B202E0002400200026C0053043F3
S31508005120E4072043F8BD992B0CDD05223100121A3D
S31508005130D1400A00010030001B318840411E8841D9
S3150800514002431600052D12DC31000D4F3940720757
S3150800515009D00F203040042805D004314A0102D571
S315080051609F2339405B1B89014E0AD8B2D6E76A1FCE
S3150800517096403100024F39407207F4D0E9E7C0463D
S31508005180FFFFFFFB70B5051E0ED001F0AFFE9E2394
S3150800519004001B1A962B0CDC082801DD083CA540E8
S315080051A06D026D0AD8B201E000200025C00528432B
S315080051B070BD992B09DD020029001B3291404A1E59
S315080051C091410522121AD5400D43052C12DC2900FF
S315080051D00C4E31406A0709D00F202840042805D014
S315080051E004314A0102D59F2331401B1B89014D0A10
S315080051F0D8B2DBE7621F95402900024E31406A07A4
S31508005200F4D0E9E7FFFFFFFBF0B54F464646D64622
S315080052100D000400C0B51F0011002803620F400AE4
S3150800522010437A00520DE3003C039146640AFA0FD4
S315080052304F0F6E0027439246B846760DED0FC9000C
S31508005240954200D199E04C46341BA446002C00DC5C
S315080052507CE04A46002A00D1B8E0C54A964200D109
S315080052601CE180223C0012041443A0466246382AF8
S3150800527000DD61E11F2A00DDCCE164462022121B15
S31508005280444694400F00A14664469140E7404C4688
S315080052904A1E91413C43424621436446E240801AF5
S315080052A05C1AA3429B415F42C71B3B0200D4D0E075
S315080052B07F027F0A002F00D1FFE0380001F016FEBA
S315080052C001000839202322005B1A8F40DA408C40FF
S315080052D01743B14200DAFFE0891B4B1C1F2B00DD88
S315080052E0A8E020223900D21A200094409140D840E4
S315080052F0621E9441DF40002601430C43630709D030
S315080053000F232340042B05D0231DA342A441644246
S315080053103F191C003B0200D49EE0954B01369E4285
S3150800532000D1B7E0934AE40817407B0771057F026E
S3150800533023433F0B4A0D12053A43ED072A4318004B
S315080053401100E0BCBA46B146A846F0BD002C4BD0C9
S315080053504C46A41BA446002E00D023E104001C439F
S3150800536000D1AFE16246541E012A00D115E2804DF4
S31508005370AC4500D1C8E1A4461BE14A46B21A944698
S31508005380002A00DCACE04A46002A43D0784A964216
S3150800539000D1AFE180223C0012041443A0466246C5
S315080053A0382A67DC1F2A00DC5FE14746203AD740E7
S315080053B06246202A05D064464022121B4446944081
S315080053C021434A1E91410C003C4357E03A000A43E8
S315080053D000D105E12200013A012C00D182E1644C9A
S315080053E0A4455BD0944641E7634C771C274200D01E
S315080053F0C4E004001C43002E00D069E1002C00D153
S31508005400BFE144460C4300D0D0E14207DB08134312
S31508005410C00829E03A000A4300D170E162466446B2
S31508005420013A012C00D1E0E0514CA44500D161E1DC
S315080054309446B4E73A001F39CA401100202B03D01E
S315080054404022D31A9F403C43631E9C4100270026F6
S315080054500C43630700D053E7B446E4087B072343AD
S31508005460F808434A94451DD06246070352053F0B88
S31508005470520D60E744460C43621E9441E4189C4270
S315080054809B415F423F183B02E3D5394B01369E42AA
S3150800549000D0B5E03200002700234CE74207DB08BE
S315080054A01343C0081A00024300D1E1E180273F03F5
S315080054B007433F032E4A3F0B3DE7200001F016FD48
S315080054C0010018311F2900DCFCE608388440270053
S315080054D00024B14200DBFFE6264A761A17400DE79C
S315080054E0002A2FD04A46921B9446002E00D1ADE0E2
S315080054F01F4A914500D10FE18022120410436246EB
S31508005500382A00DD0FE11F2A00DD80E164462022EB
S315080055101E00121B6746040093409440FE405A1E24
S315080055209341F84034431C43804464188C42BF417D
S315080055307F424E464744A6E742460A4311004A1EA2
S315080055409141ADE60C4C721C224200D0A1E002004B
S315080055501A43002E00D0FAE0002A00D145E13A00AD
S315080055600A4300D046E14207DB081343C0087BE73D
S31508005570FF070000FFFF7FFFFE07000047465C1A93
S31508005580C21BA342BF417F42B94617004A46BF1A0B
S315080055903A0200D58DE023003B4300D08AE600207E
S315080055A0002561E7B44CA14500D1ADE08024240470
S315080055B020436446382C3DDC62461F2C00DDB7E0EC
S315080055C020251E002D1B0400AB40AC40D640D04021
S315080055D042465D1EAB413443121A904623432CE0E3
S315080055E04207DB081343C0083BE75C189C429B4113
S315080055F040445B42C71801263B0200D429E702262D
S315080056009E4A63081740012214401C43FB071C43AB
S315080056107F0873E64446203AD4406246202A05D0DD
S3150800562067464022D21B4746974039434A1E914156
S31508005630214335E60343581E8341CC1AA142BF4194
S3150800564043467F4255464E46DF1B2EE602001A4366
S3150800565000D1BDE062466446013A012C00D1E5E07E
S31508005660854CA44558D0944649E764462022121B27
S31508005670444694400F00A14664469140E7404C4694
S315080056804A1E91413C4342460C436146CA40801833
S31508005690F4E6794CA24200D1FDE6591899429B419D
S315080056A040445F42C719FC07490816000C437F08A7
S315080056B0CFE6CC1AA142BF4143467F42181A554647
S315080056C0C71BF7E5C9087B0755460B43F808C8E624
S315080056D0002C00D081E043460B4315D180200025DD
S315080056E00003E3E65C1AA3429B41C71B5B42012603
S315080056F0FF1ADAE54207DB081343C008D2E6420779
S31508005700DB081343C008ACE643464246C9085B07B4
S3150800571055460B43D008C5E6434642465B07C908CB
S315080057200B43D008BEE603431C00631E9C41FCE6FF
S315080057300200203CE24014006246202A03D040259D
S31508005740AD1AA8400343581E8341234375E7002A30
S31508005750E2D03A000A43CDD04207DB081343802241
S31508005760C0081203104206D0FC08144203D12000D8
S31508005770CB087A0713435A0FDB005207DB0813439B
S3150800578090E643460B4300D109E743464246C9081B
S315080057905B0755460B43D00866E6CC1AA1428941F9
S315080057A03F1A4942554601267F1A7EE542465C1A4B
S315080057B0871AA34292415242BF1A3A023DD5CC1AE1
S315080057C0A1428941434649421F1A55467F1A95E523
S315080057D07B07C9080B43F80843E64446DB080C4335
S315080057E030D142071343C0085CE67B07C9080B4360
S315080057F0F80839E65C189C429B4140445B42C7184E
S315080058003B0200D425E61D4B01261F4021E6040075
S31508005810203AD4406246202A04D040226646921B8B
S31508005820904003435A1E93411C437EE65C188C4203
S315080058308941404449424718DDE623003B4300D1ED
S31508005840ADE606E6440723438024C0082403204225
S3150800585008D04246D608264204D155463000CB0821
S3150800586051070B435A0FDB00DB085207134319E6AF
S315080058700023014A1F005EE5FF070000FFFF7FFFC8
S31508005880F0B557464E464546DE46E0B58146050024
S315080058900C03480092461F0085B0240B400DCE0F1E
S315080058A0002800D156E1D44B984200D172E16B0F23
S315080058B0E4001C4380231B0423439846CF4BED008A
S315080058C09B4600239946834400933C037B0050463D
S315080058D0240B5B0DFF0F002B00D11FE1C64A934234
S315080058E000D162E1C549420F8C46E400594614438B
S315080058F0802263441204CB1A14439B46C20000203C
S3150800590033007B409A464B460F2B27D8BC499B0051
S31508005910CB589F46B246009B022B16D0032B00D1CC
S315080059208EE2012B00D0D9E0002300240025524640
S315080059301B052343D20713432800190005B0F0BC02
S31508005940BB46B246A946A046F0BD00240025AA4B90
S31508005950EDE7BA46A04615000090DCE7444500D2BC
S31508005960C7E100D1C2E101235B429C462E004046B6
S315080059700025E3442302140E1C431B0C99462304FA
S315080059801F0C1202494600920197FEF7B3FA02006D
S315080059907A430B04310C804619438A4207D90123FE
S315080059A05B429C460919E0448C4200D807E2881AF3
S315080059B04946FEF79FFA09048C4631046646019A61
S315080059C0090C4243030031438A4204D90919013BB1
S315080059D08C4200D8EDE1881A424612041A439046D2
S315080059E04146009B0E041B0C1F000293009B360CBD
S315080059F01B04190C0B007343120C7E43039151438D
S31508005A007A431F0CBC4676186644B14203D98021F6
S31508005A1049028C466244310C8A1831041E04360C3D
S31508005A208E19904202D312D1B54210D24346591E5E
S31508005A30009B9C4665441F009D429B415B421B1987
S31508005A40C018844200D2A0E100D19BE18846AE1B73
S31508005A50B542AD41801A6D42401B844200D1D5E162
S31508005A604946FEF747FA019A0B044243310C0500F2
S31508005A7019438A4200D96CE1881A4946FEF73AFA70
S31508005A80019A360442430904360C03000E43B24217
S31508005A9000D953E10398B61A02002D041D43029F4C
S31508005AA02B041B0C5A437B439C46290C4843130C76
S31508005AB0844463447943984203D98020400284464B
S31508005AC06144180C12041B04120C41189B188E42D0
S31508005AD000D2FFE000D1FAE001231D43494A5A44A7
S31508005AE0002A00DCAAE06B0700D03DE1ED0843463A
S31508005AF0DB0106D54246444B1A4090468022D20026
S31508005B005A44424B9A4200DD1FE743465B071D4352
S31508005B10434652055C02240B530D08E752462243BE
S31508005B2000D17BE0002C00D1FAE0200001F0DEF97C
S31508005B3002000B3A1D2301009B1A52460839DA4027
S31508005B408C40144352468A40314B58449B46834402
S31508005B500020D5E64B462343984644D0002C00D176
S31508005B60CEE0200001F0C2F9010002000B391D2326
S31508005B705B1A49461000D940083884400B004D4648
S31508005B802343984685402348831A9B460023994613
S31508005B9000939AE64B46234398461DD10823994617
S31508005BA0063B0025834600938FE65246224309D1D9
S31508005BB0022349461943184B89469C46002402206D
S31508005BC0E3449DE603234A461A43134B91469C46F3
S31508005BD052460320E34493E60C239946093BA04624
S31508005BE08346009371E60423994600239B460133B6
S31508005BF00025009369E6C046FF07000001FCFFFF89
S31508005C0000290108FF030000FFFFFFFEFE07000052
S31508005C10F30300000DFCFFFF01F8FFFF49460123CF
S31508005C2019438946002401206AE6002380249A46FF
S31508005C3000258A4B24037AE601256D4201239B1A27
S31508005C40382B00DD70E61F2B00DCBFE01F21494220
S31508005C508A1A4146D1400A00202B04D04146804B7F
S31508005C605B4499400D436B1E9D4107232A431D0043
S31508005C7000241540134200D1D4E00F21002311401F
S31508005C80042900D1CBE0111D9142924152429B1842
S31508005C900A00190200D4C2E001230024002546E6C2
S31508005CA0802341461B03194208D01C4206D11C43D7
S31508005CB02403BA461500694B240B38E6802443466C
S31508005CC024031C432403B246644B240B2FE6002B03
S31508005CD000D103E7A619681EA64200D28DE08E42BF
S31508005CE000D2A3E000D1B3E00500F5E6AA4200D948
S31508005CF039E64346DE0758086B081E43ED0739E6C2
S31508005D00484601F0F3F801000200153120321C293B
S31508005D1000DC2CE74B46083883400025984632E7D6
S31508005D2001F0E4F803001A00153220301C2A00DCC2
S31508005D3000E75446083B00229C4005E73619013B1C
S31508005D40B44200D9A6E6B24200D8A3E6831E3619A5
S31508005D50A0E60919013D8C4200D98DE68A4200D891
S31508005D608AE6851E091987E60F232B40042B00D1E6
S31508005D70BCE605235B42AB429B4104355B42ED081A
S31508005D809844B4E6AF4200D960E6824204D800D00F
S31508005D905CE6AE4200D859E602235B429C46009B6D
S31508005DA0E0449C4665449D429B415B421B19C018D2
S31508005DB04DE68A4200D80EE6831E09190BE68A428A
S31508005DC000D8F4E5831E98460919F0E52549280008
S31508005DD059448D4042468A40691E8D414146D84005
S31508005DE0D94002432A430B00510700D151E70F213E
S31508005DF01140042900D046E74BE705008E4200D043
S31508005E006AE6009A934200D066E667E6164A5A445E
S31508005E10002A00DC10E701230025984467E65D07A1
S31508005E205B021C0BD2080023154380E50098023D4F
S31508005E3042008242BF417F423C1936190092DDE793
S31508005E408024434624031C432403044B240B6EE599
S31508005E50009A9A42EAD30500D3E7C046FF07000036
S31508005E603E0400001E040000FF030000F0B54E4685
S31508005E704546DE4657469046E0B517001A03120B0C
S31508005E800500844619480E034C0091465A00DB0F5C
S31508005E909B46360B640DC90F520D844219D08242B7
S31508005EA010D0012094420ED14E450CD10120C44594
S31508005EB009D1594517D0002C05D130002843431E77
S31508005EC0984100E00120F0BCBB46B246A946A04670
S31508005ED0F0BD330001202B43F5D1A242F3D14B4646
S31508005EE03B43F0D1E2E70020EDE7C046FF0700009C
S31508005EF0F0B54746CE460400180016001B031B0BD8
S31508005F002D4D4A00994680B543000F03A446B04676
S31508005F103F0B520DC90F5B0DC00FAA4221D0AB42F1
S31508005F2013D0002A22D13C43002B02D14D462E43E2
S31508005F3022D0002C10D0814222D0022001390840FC
S31508005F400138C0BCB946B046F0BD4D462E4329D1EE
S31508005F50002AF0D13C43EED10028F2D1012040427C
S31508005F60EFE73D0025431DD19342EED0002BE2D149
S31508005F704C462643DFD1E0E70020002CE1D0DCE7E1
S31508005F809A420ADCE8DB4F45D7D80ED000204F45A9
S31508005F90D7D20029E2D00800D3E74342584140004F
S31508005FA00138CEE702204042CBE7C445C5D80020D9
S31508005FB0C445C6D2EDE7C046FF070000F0B5474620
S31508005FC0CE460400180016001B031B0B2C4D4A0076
S31508005FD0994680B543000F03A446B0463F0B520DC1
S31508005FE0C90F5B0DC00FAA420DD0AB4210D0002AD4
S31508005FF027D13C43002B11D14D462E430ED100200C
S31508006000002C15D00EE03D00254310D1934218D13F
S315080060104D462E430BD1002A02D13C43002C0BD00F
S31508006020814214D0022001390840013800E00220DC
S31508006030C0BCB946B046F0BD0028F9D1012040429F
S31508006040F6E7002BECD14C462643E9D1EAE79A421B
S3150800605004DD4342584140000138E9E79A42EBDB48
S315080060604F45DFD806D000204F45E1D20029E5D0BC
S315080060700800DDE7C445D5D80020C445D8D2F5E7E1
S31508006080FF070000F0B557464E464546DE46E0B5E2
S3150800609098460C034B000600924687B0240B5B0D0E
S315080060A0CF0F002B00D15CE1D94A934200D175E1AC
S315080060B0420FE4001443802212041443D54AC50053
S315080060C0944663440093002399469B4643464246BA
S315080060D01E03D20F5B0050469046360B5B0D00D16F
S315080060E020E1CB4A934200D162E1CA49420F8C466D
S315080060F000996344F6008C46164380229C44120499
S3150800610063461643C20000200093009943460131B6
S315080061108C4649467B4001930F2926D8BE4B8900F9
S3150800612059588F46434601933400150083465B460B
S31508006130022B16D0032B00D103E2012B00D0CDE0B1
S31508006140002200240025019B12052243DB071A437F
S315080061502800110007B0F0BCBB46B246A946A046C7
S31508006160F0BD00240025AA4AEDE7280C2D042D0CC5
S315080061702B00110C1204120C5343984613002F00DF
S31508006180434399464F434F44BB4647460B003F0C93
S31508006190BA464343DA440293D14504D980277F029D
S315080061A0B9464B44029353461B0C9B4653461F0461
S315080061B043461B041B0C98463B0043440493330C8C
S315080061C03604360C984633004343994643464343C0
S315080061D02F009A46434677435D43380C4D4445198C
S315080061E0A94503D980235B029946CA443F04280C73
S315080061F03F0C2D04ED19270C2404240C0300200061
S3150800620050437A4391463A0053440593030C9A4601
S315080062104A43614349445144AB44894503D98023E1
S315080062205B0299464A4400040B0C000C0904091841
S3150800623020009946434670435C437E435F43030C04
S315080062409846A41944444A440397A64204D980238D
S315080062505B029846474403972304029E9A46059B89
S315080062605E449846AE42AD4176188E428941000496
S31508006270000C504440446D424719B846934649427B
S315080062808946C344D94498428041A845AD419345BF
S315080062909241894589416D4240422843240C524225
S315080062A049420A43039B00198018C7184B46DC0D60
S315080062B0049B75021D436A1E95414B46F60D7F02E7
S315080062C035435A023C431543FB0100D41CE1012126
S315080062D06A080D401543E207154364084F496144AF
S315080062E0002900DCB0E06B0709D00F222A40042AF7
S315080062F005D02A1DAA42AD416D4264191500E30175
S3150800630004D58021464AC90014406144454A914251
S3150800631000DD26E76207ED08640249051543240BEC
S315080063204A0D10E75246324300D17FE0002E00D1D5
S31508006330DCE0300000F0DAFD02000B3A1D23010014
S315080063409B1A52460839DA408E40164352468A400E
S31508006350009B3549181A03008C46634400200093B5
S31508006360D3E6250005434AD0002C00D1B0E0200032
S3150800637000F0BCFD010002000B391D2310005B1A5A
S315080063803100350008388440D94085400C432648FA
S31508006390831A0093002399469B4697E605002543F2
S315080063A026D1082200930223002491469B468DE6B7
S315080063B05246009B324310D1154900268C46634449
S315080063C04946009302231943894602209DE65B4607
S315080063D00197022B00D0ADE6C3E60D4A032094468A
S315080063E063444A46009303231A43914652468CE671
S315080063F00C2200930323050091469B4666E6042378
S31508006400994600230093013300249B465EE6C04666
S31508006410FF07000001FCFFFF40290108FF030000F9
S31508006420FFFFFFFEFE0700000DFCFFFF49460123A4
S31508006430194389460026012067E6002380240025A3
S31508006440434A019324037EE60120401A382800DDDA
S3150800645076E61F285BDD1F2223005242511ACB40E5
S315080064601900202803D03B4A6244944025436A1EFB
S3150800647095412A000A4307210D00002415401142C0
S315080064805BD00F2100241140042953D0111D9142DD
S3150800649092415242A4180A0023024BD50122002435
S315080064A0002550E680231B031C4209D01E4207D153
S315080064B033431C0343461500240B254A019342E641
S315080064C08022120314432403214A240B01973AE637
S315080064D000F00CFD01000200153120321C2900DCF9
S315080064E04BE7340008380025844050E700F0FEFCEE
S315080064F003001A00153220301C2A00DC1EE7564617
S31508006500083B00229E4023E7009B9C46E6E612498C
S31508006510220061442E008D408A40C640691E8D4186
S3150800652032432A43C4405307B6D00F2111400429E9
S31508006530ACD1B1E765076402240BD20815430022E3
S3150800654001E68022120314432403014A240BFAE5C8
S31508006550FF0700003E0400001E040000F8B5574679
S315080065604E464546DE46E0B51E0017004A000B03B8
S31508006570520D5B0A9046420F1A43CD0FCD4C31039C
S31508006580C300944670007A0F490AFF009A46B94636
S31508006590400DF60F1143A04200D1B1E0012256404A
S315080065A0B346B54200D188E04246121A002A00DCFA
S315080065B0AEE0002800D1C1E0BE48804500D151E1D7
S315080065C0802000040143382A00DD7BE11F2A00DD14
S315080065D0EEE120203E00801A0C00D640D1408740CC
S315080065E062468440521A781E8741944634432743AC
S315080065F0DC1BA3429B4162465B42D31A99464B4633
S315080066001B0200D418E14B465802430A99464B46EA
S31508006610002B00D137E1484600F068FC0100083934
S315080066202023220048465B1ADA4088408C404346BD
S315080066301043884500DD36E1C91A4B1C1F2B00DDC7
S31508006640EAE020222600D21A01009440DE40D84013
S3150800665000239140621E94418146984631430C437B
S31508006660630709D00F232340042B05D0231DA3421B
S31508006670A4416442A1441C004B461B0200D4DEE040
S3150800668041468C4B0131994200D1E7E04B468A4896
S31508006690E4080340180049055B07400223434A0DF6
S315080066A0040B1205ED0722432A4318001100F0BC1B
S315080066B0BB46B246A946A046F8BD4246121A002A6B
S315080066C052DD002800D19CE0A04500D1CAE0802018
S315080066D000040143382A00DD49E11F2A00DC97E15E
S315080066E010000E002038C640202A04D04020821A06
S315080066F091400F43B9464C46621E944134433AE1F1
S315080067000A003A4328D0B346B5422BD06B4A4244D6
S31508006710002A5DD042464446821A002C00D0F5E095
S3150800672065461D4300D19CE1551E012A00D1FBE1B7
S31508006730604CA24200D1BDE12A00F0E008003843CF
S3150800674000D1C3E0501E012A00D1A8E1594CA2424B
S3150800675000D187E0020036E701225640B346B5422B
S3150800676000D021E7554A4244002A00D1B5E0424606
S315080067704446821A002C00D138E14E4EB04200D170
S31508006780DEE18026644636043443A446382A00DD12
S3150800679096E11F2A00DD24E22026B41AA2466446A2
S315080067A05646B440A1461C004E46D4402643340003
S315080067B05646B3405E1EB3411C436346D340C918D0
S315080067C0E419BC42BF417F42B94680468944D8E0B5
S315080067D040463B4C0130204200D0B4E040460028F9
S315080067E000D044E16046184300D190E108003843E0
S315080067F000D0AAE16146DB0849070B436146CC088D
S3150800680027E00800384361D0501E012A00D139E13B
S31508006810A24227D002005DE702001F39CA401100D4
S31508006820202B03D04022D31A98400443631E9C4170
S315080068300023994698460C43630700D012E74B4657
S315080068404A46E4085B072343D408424619498A4264
S315080068500ED024035205240B520D22E70A00002409
S3150800686000231EE7DB086246520713436246D40834
S315080068701A00224300D1FCE18022120314432403A8
S315080068800C4A240B0DE7200000F030FB01001831FC
S315080068901F2900DCC4E6083884404346200000244B
S315080068A0884500DCC8E6044A5B1A104098468146CB
S315080068B0D6E6C046FF070000FFFF7FFF01F8FFFF8F
S315080068C0FE0700000F437A1E974191E66146DB08F2
S315080068D049070B436146CC08B8E74046D34C01301C
S315080068E0204200D0A2E04046002800D001E16046E0
S315080068F0184300D15EE10800384300D05FE16146E5
S31508006900DB0849070B436146CC08A2E7C84DA842F5
S3150800691000D1CFE0802564462D042C43A446382AAE
S3150800692056DC1F2A00DDD1E020251E00AD1A64467C
S31508006930AB40AC40D6405D1EAB413443234364466E
S31508006940D440091B49E06046DC1B461AA342804135
S315080069504042814630004E46801B8146000276D46E
S315080069604B46234300D052E60024002571E73943FD
S315080069700C00621E9441E4189C429B415B426344AE
S3150800698099464B461B0200D456E701239C46A84B62
S31508006990E044984538D04B46A648012203401800E3
S315080069A0630814401C43C3071C434308994657E62B
S315080069B010000E002038C640202A04D04020821A33
S315080069C091400F43B9464F467A1E974137430FE623
S315080069D062461A4313005A1E9341FC1AA742BF4146
S315080069E07F42CB1B99465D46804608E666461E43AF
S315080069F000D1BEE0561E012A00D109E18C4CA24204
S31508006A0000D119E13200C1E642460024002348E6D7
S31508006A1020200C00801A3E0087408440D640781E0D
S31508006A208741D14034433C438C44A4E7804A904292
S31508006A3000D1E9E0DF199F429B4161445B42C918D6
S31508006A40CC077F084B08994680463C43F4E6FC1A77
S31508006A50A742BF4163467F42C91ACB1B99465D468A
S31508006A60D5E5FF084B075D463B43CC08EEE6624694
S31508006A701A4300D082E00B003B431BD1802400253B
S31508006A802403F9E6DC199C429B41614489465B4232
S31508006A9099444B461B0244D401239846CCE6DC1B9A
S31508006AA06246A3429B41511A5B42CB1A994601237F
S31508006AB09846A4E5FF084B075D463B43CC08D7E656
S31508006AC062461A431400631E9C4179E61500644623
S31508006AD0203DEC40A046202A05D040256446AA1A47
S31508006AE0944023439A465446631E9C414346234397
S31508006AF073E762461A4323D00A003A4300D0A0E05F
S31508006B006246DB08520713436246D408B0E60B0018
S31508006B103B4300D128E7FF084B075D463B43CC08BB
S31508006B2097E60223984636E7FC1AA742BF41634612
S31508006B307F42C91ACB1B994601235D4698465EE5F6
S31508006B404B07FF083B43CC0892E6DC1B6046A34292
S31508006B50B641401A7642801B8146000260D5FC1A6F
S31508006B60A742BF4163467F42C91ACB1B99465D4679
S31508006B7076E5FF084B073B43CC0867E60A00DB08C7
S31508006B803A4300D16FE66246520713436246D40879
S31508006B9080221203144207D0C808104204D15D4669
S31508006BA00400FB0849070B435A0FDB00DB085207B2
S31508006BB013435DE64B07FF083B43CC0849E6DC195F
S31508006BC09C429B41614489465B4299444B461B0261
S31508006BD000D431E64A46174B1A4001239146984697
S31508006BE02AE616006446203EF440A046202A05D030
S31508006BF040266446B21A944023439A465446631E76
S31508006C009C4143461C43DBE502000024002348E57B
S31508006C10DC19BC42BF41614489467F42B94438E722
S31508006C204B46234300D19FE606E6C046FE07000012
S31508006C30FF070000FFFF7FFFFF084B073B43CC0819
S31508006C4016E66246DB08520713436246D4088022DA
S31508006C501203144207D0C808104204D15D46040046
S31508006C60FB0849070B435A0FDB005207DB0813439F
S31508006C70FEE50023014A1C0013E5C046FF07000095
S31508006C800A0030B5134C530009030500090B002010
S31508006C905B0DD20FA34204DD0F48834202DD0F4B82
S31508006CA0D01830BD8020400301430D48C01A1F2864
S31508006CB008DD0C48C31AD9400B005842002AF0D107
S31508006CC01800EEE7084CC540A446634499400B00FB
S31508006CD02B43F2E7FE0300001D040000FFFFFF7FC1
S31508006CE03304000013040000EDFBFFFF70B5002815
S31508006CF016D0C317C5185D40C40F280000F0F6F873
S31508006D00114A121A0A2816DC03002E0015339E4073
S31508006D100B23181AC54052052D032D0B530D03E0FE
S31508006D2000240023002500261B052B43E4072343E4
S31508006D303000190070BD0B38854052052D0300261A
S31508006D402D0B530DF0E7C0461E04000070B5430036
S31508006D504602C40FFE201B0E591C750A08420CD0A9
S31508006D60E022920094466D07360B63441B053343B5
S31508006D70E40723432800190070BD002B14D1002D09
S31508006D801BD0280000F0B2F80A281CDC0B232E00C2
S31508006D901B1ADE40030015339D400E4A3603121AAD
S31508006DA05205360B530DE1E7002D09D08022360B2C
S31508006DB01203094B6D071643D8E700230026D5E7CB
S31508006DC00026054BD2E703000B3B9D402E0000250D
S31508006DD0E3E7C04689030000FF07000002004B00F6
S31508006DE0F0B55B0D0C033D4E640A400F5F1CC90FDE
S31508006DF00443D50037420AD039481E18FE2E16DD40
S31508006E00FF200024C0052043C9070843F0BD002B16
S31508006E1006D12C4326D005229201540AD8B2F1E7AE
S31508006E202543EDD08020C0030443FF20EAE7002E67
S31508006E301BDD9201531E9A41E4006D0F22432A433B
S31508006E40530748D00F231340042B00D00432802365
S31508006E50DB0413403FD0701CFE2ED1D09201540A99
S31508006E60C0B2CFE700200024CCE73200173222DB7D
S31508006E708020000420431E24A41B1F2C1DDD022293
S31508006E805242961B0200F2401600202C04D0154AE6
S31508006E9094466344984005432A00531E9A41324358
S31508006EA000265307CED180241300E4040120234092
S31508006EB02242D3D1B0E70023ADE70B4A94462A0015
S31508006EC0E24014002A0063449A409840551EAA419D
S31508006ED002432243E4E733009EE7C046FE0700006C
S31508006EE080FCFFFFA2FCFFFF82FCFFFF1C210123A1
S31508006EF01B04984201D3000C10391B0A984201D38F
S31508006F00000A08391B09984201D30009043902A26C
S31508006F10105C40187047C0460403020201010101D3
S31508006F20000000000000000010B5002903D1FFF79B
S31508006F30DDFF203002E00800FFF7D8FF10BDC0468D
S31508006F40062010B501F0A6F9012008F0B2FCC046EB
S31508006F5010B5002102F096FA10BDC046014B18681C
S31508006F607047C0460400002070B50C4D0C4E761BC9
S31508006F70B61005D0002408CD01349847A642FAD1A8
S31508006F800BF012FC074D084E761BB61005D00024F0
S31508006F9008CD01349847A642FAD170BD603501087C
S31508006FA060350108603501087835010810B5034BCE
S31508006FB00100186800F014F910BDC046040000204E
S31508006FC010B5034B0100186800F0AAF810BDC046BA
S31508006FD004000020F0B5C64600B50F2A41D903279C
S31508006FE00D003E0005430C0003002E402F423DD104
S31508006FF01500103D2D09A8462D01AC468444276886
S315080070001D001F6067685F60A7689F60E7681034A7
S31508007010DF6010336545F2D145460F230C24013550
S315080070202D01491913404519144222D08C59AC51E7
S3150800703004369C1B032CF9D8043B9B0801339B00A0
S31508007040ED18C91803231A40561E002A06D0002335
S31508007050CC5C1A00EC5401339642F9D180BCB84690
S31508007060F0BD0500561E002AF1D1F7E70500561EA9
S31508007070EDE71A00F6E7C046F0B50500830749D0E4
S31508007080541E002A45D003000326CAB202E0013581
S31508007090013C3ED301332A703342F8D1032C30D950
S315080070A0FF220A40150215432A0415430F2C34D92A
S315080070B02700103F3F093E01B4461E001A0010364D
S315080070C06644156055609560D5601032B242F8D1B5
S315080070D001373F01DB190F270C22274022403C00CD
S315080070E0002A0ED03E1FB608B400A4461A001C1D7E
S315080070F0644420C2A242FCD103240136B6009B197F
S315080071003C40002C05D0C9B21C19197001339C42A9
S31508007110FBD1F0BD03001400C0E72700E2E7C04634
S3150800712070B50500002915D00C1F2368002B23DB3A
S31508007130280004F071FC294A1368002B05D0A342E5
S315080071400BD92168601883422DD06360280014602B
S3150800715004F064FC70BDA34210D81A005B68002BCB
S31508007160F9D1106811188C4219D030D36360546075
S31508007170280004F053FCEDE7E418D9E71168501825
S31508007180A04217D023D8216860188342EED1186828
S315080071905B6884466144216063605460E8E723685D
S315080071A018181060E4E718685B6884466144216033
S315080071B06360CBE720680918501811608342D7D15D
S315080071C018685B688446614411605360D0E70C23F5
S315080071D028002B6004F022FCBCE7C046DC07002030
S315080071E0F8B50323CD1C9D43083506000C2D27D280
S315080071F00C25A94226D8300004F00EFC284F3A6820
S31508007200002A27D0140004E063682200002B21D04E
S315080072101C0023685B1BF7D40B2B17D863689442B2
S3150800722035D05360300004F0F9FB200007220B30FC
S31508007230231D9043C21A984207D01B1AA35004E094
S31508007240002DD6DA0C2300203360F8BD2360E4183D
S315080072502560E7E77B68002B1BD02900300000F08B
S315080072609BFE431C0CD00323C41C9C43A04205D0A0
S31508007270211A300000F090FE431C01D02560D1E7AA
S315080072800C233000336004F0C9FB0020DDE73B60C7
S31508007290C8E70021300000F07FFE7860DDE7C046D1
S315080072A0DC070020F0B5CE4600B588B01E001700F2
S315080072B00023129C002E04DA8021090673181E008A
S315080072C02D23109A1370662C23D0462C21D0202308
S315080072D022009A43452A48D007AB049306AB03938A
S315080072E0119B3A0002930E9B0193022300933300ED
S315080072F002F004FC0500672C49D10F9BDB0748D434
S31508007300079B2800139A5B1B136008B080BCB9461C
S31508007310F0BD07AB049306AB0393119B3A000293A7
S315080073200E9B019303230093330002F0E7FB0E9BA9
S31508007330050099462B788144302B2DD0119B1C686B
S315080073404C440023002238003100FCF7D3FE23000A
S315080073500028D6D1079B9C42D3D930215A1C0792C4
S315080073601970079BA342F9D3CBE70E9B3A0001336A
S315080073700E9307AB049306AB0393119B02930E9BE4
S31508007380019302230093330002F0B8FB0500472C53
S31508007390B3D00E9BEC18D4E7002200233800310046
S315080073A0FCF7A8FE0028C9D101240E9BE41A119BFC
S315080073B01C60C5E7F0B5D6464F464646C0B5824678
S315080073C00C0082B0027000293CDB02235344994624
S315080073D02B2352465370092C26DD07236B44984607
S315080073E01F0020000A21FCF76FFE3D003031013FE7
S315080073F0200039700A21FCF781FD26000400632E5F
S31508007400EFDC3034AB1EE4B21C70434520D24A464A
S3150800741000E01C780133147001324345F9D1092084
S315080074206844401B484405E04A463023303413700C
S31508007430901C54705346C01A02B0E0BCBA46B14616
S31508007440A846F0BD0223534499464C422D23C0E773
S315080074504846EFE7F0B5DE4657464E464546E0B5A0
S3150800746091B01F001A9B0C0098461600050004F000
S31508007470E9F9036818000A9300F0C8FF00230B9087
S315080074800E93237E0722994623684146099343466D
S315080074901B68073393431A0008320A601A685B6848
S315080074A09046A264E3649B465B005B089A46012209
S315080074B040465146BB4B524205F06AFD002809D1A9
S315080074C0012240465146B74B5242FCF723FE00289C
S315080074D000D1A9E042465B464046594605F058FDAC
S315080074E0002800D0A8E263685A1C34D04A46672AA6
S315080074F078D0472A76D08021099AC90011430022FC
S31508007500216006920EAA05924A4604A804920DAA7C
S3150800751084460392232262440292009392465B4673
S31508007520424628000191FFF7BDFE80464B460D995D
S31508007530652B3ED820004A46013950300D91FFF799
S3150800754039FF0E9A834613182361012A00DCC6E127
S31508007550013323613EE00621073363608023099ADD
S31508007560DB0013430022236006920EAA05924A46C0
S3150800757004A804920DAA8446039223226244029226
S31508007580019392465B46424628000091FFF78AFE21
S3150800759020234A4680469A43472AC7D10D99CB1CD1
S315080075A000DB98E04B46023BDBB299464B46652B1F
S315080075B0C0D9662B00D198E00E9B8B4200DCA0E078
S315080075C00122002901DC0132521A9B18236100238B
S315080075D09B46A16553461B78002B3DD043232D229D
S315080075E0E25439E0002B00D193E08021099AC900C2
S315080075F011430022216006920EAA05924A4604A863
S3150800760004920DAA844603922322624402920191AF
S31508007610009392465B4642462800FFF743FE0D99C3
S315080076208046CB1CBEDB56E0002200234046594666
S31508007630FCF766FD002802D043232D22E2544B4670
S31508007640472B4FD9584B98460323099A2361013390
S315080076509A4300239B4622603300210028000097A6
S315080076600FAA00F00BFA431C2CD023685A0559D4EC
S315080076702369424631002800B847431C22D02368B4
S31508007680E0689B0749D50F9BC21A002A46DD1923D5
S315080076909946002398463B00A14437002E004D46E4
S315080076A0A1464446984606E04B46D8680F9B0134E7
S315080076B0C21AA24232DD01232A0039003000C0472F
S315080076C0431CF1D10120404211B0F0BCBB46B24682
S315080076D0A946A046F0BD6368994200DD62E76723C4
S315080076E0994669E7314B9846AEE7002900DCFBE08E
S315080076F063682161002B00D12FE101335B182361F8
S3150800770065E723682161DB0700D460E74B1C23612A
S315080077105DE701230121636020E70F9B9842D3DAD6
S315080077201800D1E74A46652A44D9A06CE16C0022C4
S315080077300023FCF7DFFC002800D189E00123310093
S3150800774028001B4AB847431CBCD00D9B0E9A93428F
S3150800775002DB2368DA0793D50B9B310028000A9AC7
S31508007760B847431CAED01A239946002398460E9B69
S31508007770A144012B00DC82E73B0037002E004D4672
S31508007780A1464446984605E00E9B0134013BA342B8
S3150800779000DCF9E001232A0039003000C047431C09
S315080077A0F2D18FE7FFFFEF7FCC330108C83301081A
S315080077B0D83301080E9A012A00DC85E001234246E7
S315080077C031002800B847431C00D17BE70B9B3100EA
S315080077D028000A9AB847431C00D173E7A06CE16CED
S315080077E000220023FCF786FC00281DD01A239946A0
S315080077F0002398460E9BA144012B1FDD3B00370052
S315080078002E004D46A1464446984605E00E9B013497
S31508007810013BA34200DCB2E001232A003900300014
S31508007820C047431CF2D14DE742460E9B3100013B4F
S3150800783028000132B847431C00D143E722005B46C3
S31508007840310028005032B847431C00D017E739E703
S315080078500D9B002B4EDDA36D9A460E9B994653450C
S3150800786000DD7FE04B46002B08DD4246310028004C
S31508007870B847431C00D125E7A36D9A464B46DB4320
S315080078804A46DB171A40534611009B1A1A2293469A
S315080078900022A344002B00DC81E0A246B94614006E
S315080078A037002E005D468B4606E053465A469B6DCA
S315080078B001349A1AA2426DDD01232A0039003000EC
S315080078C0C847431CF1D1FDE6DB0700D576E701235F
S315080078D0424631002800B847431CAFD1F2E6226879
S315080078E0D20700D476E633E66368002B3CD09A1CB0
S315080078F022616CE60123310028005D4AB847431C23
S3150800790000D1DFE60D9B0E9A134333D00B9B310053
S3150800791028000A9AB847431C00D1D3E61A239A4688
S31508007920002399460D9BA244002B00DB94E03B0004
S3150800793037002E005546A2464C46994605E00D9B53
S3150800794001345B42A34200DC82E001232A003900AD
S315080079503000C847431CF2D1B4E62268D20700D4E7
S3150800796035E6CAE6D1467DE720680122C007BFD5BD
S315080079709A1CBDE72368DA0700D481E6C6E7350016
S315080079804C463E00474659E74C46350023683E00BC
S31508007990474675E6350054463E009A464F460D9AC8
S315080079A00E9B9A4202DB2168C90709D50B9B310059
S315080079B028000A9AB847431C00D183E60E9B0D9A05
S315080079C05146591A9B1A99468B4200DD89464A4602
S315080079D0002A0BDD42464B46310028005244B84780
S315080079E0431C00D16EE60E9B0D9A9B1A4A46D2435B
S315080079F04946D21711401A229246894600225B1A36
S31508007A00A244002B00DC3AE63B00370098462E00DD
S31508007A105546A246140007E00D9A0E9B01349B1AA0
S31508007A204A469B1AA3421CDD01232A00390030006E
S31508007A30C047431CF0D145E65B46002B02DA4323D8
S31508007A402D22E2544B46472B08D90A4B9846FBE5AC
S31508007A50350054463E004F460E9B0AE6064B9846AE
S31508007A60F2E55446350023683E00474608E6C04618
S31508007A70D8330108D4330108D0330108F8B557467E
S31508007A804E46DE464546E0B51F000A9B9246994695
S31508007A900A698B6806000C009A4200DA1A005346F7
S31508007AA01A604323E35C002B02D0514601320A6078
S31508007AB021688A065ED55346524606201B6802335D
S31508007AC0136021680A00084209D1E268D31A19220C
S31508007AD093460022A34490460A00002B42DC432327
S31508007AE0E35C591E8B4192060AD53020E1184331D2
S31508007AF0087045215A1C615CA21843320233117082
S31508007B002200390030004332C847431C19D00623E7
S31508007B1022681340042B33D0A368226993423DDDC3
S31508007B20002188469B1A984400251A3402E001353C
S31508007B30454533DA0123220039003000C847431C83
S31508007B40F5D101204042F0BCBB46B246A946A04644
S31508007B50F8BD01239C465346E2681B68E044D51AE3
S31508007B60454520DD01235A4639003000C847431CE5
S31508007B70EFD1E6E706220A4212D05A1E9341BFE722
S31508007B8053461968E3682269591ACB43DB170B4039
S31508007B909846A3689342C5DC0029C5DC0020D2E7D5
S31508007BA053461B6891E743232268E35C591E8B41C1
S31508007BB092069AD4A4E7C046F0B54E4699464323A2
S31508007BC09C4657464546DE468C446346E0B587B034
S31508007BD003930C00097E90460700109A002914D0DA
S31508007BE00B00583BDBB2202B4BD892489B00C3585E
S31508007BF09F462368190602D45B0600D501E113687F
S31508007C00191D11601B6862691A600023039D2361B0
S31508007C104B46210000933800434605AAFFF72EFF7E
S31508007C20431C1FD023692A0041463800C847431C15
S31508007C3018D023689B071ED5E36805981A1A002AE8
S31508007C401BDD26000025193605E0E3680598013591
S31508007C501A1AAA4211DD0123320041463800C847E4
S31508007C60431CF2D10120404207B0F0BCBB46B246E5
S31508007C70A946A046F0BDE36805989842F4DA1800CC
S31508007C80F2E742232500E154413B42352361432371
S31508007C900022E254BCE72368190602D4590600D527
S31508007CA0BBE01168081D10600A681600002A75DB1B
S31508007CB0614B9B460A239A464DE02368180602D470
S31508007CC05B0600D5A4E01368181D10601E685A4BA1
S31508007CD09B466F2900D1A7E00A239A4638E0136825
S31508007CE02500191D11601A684223E254413B4235AA
S31508007CF02361CCE71368191D11601D68002128004F
S31508007D00626803F04FFE002800D190E0401B6060D7
S31508007D102061BCE7202321680B4323604521782096
S31508007D20605446498B46190631D459062FD5116831
S31508007D30081D0E881060DA0702D520221343236037
S31508007D4010239A46002E03D1226810339A432260E4
S31508007D5043230022E2546368A360002B48DB042215
S31508007D60216891432160002E27D1002B42D1039D23
S31508007D705346082B31D0039B5B1B236148E74523F9
S31508007D805821E15423682C498B461906CDD511682C
S31508007D90081D10600E68CEE72368BFE743222D2131
S31508007DA0A15462687642A260002A02DB0422934349
S31508007DB02360214B9B460A239A46039D3000514671
S31508007DC0FCF798F85B465B5C013D2B7033000600B8
S31508007DD05345F3D25346082BCDD12368DB07CAD5C2
S31508007DE0636822699342C6DC3023013D2B70C2E7E3
S31508007DF0002EE2D15B4625001A7842234235E2542A
S31508007E00B6E713686169181D10601B681980FCE6DF
S31508007E101368181D1E88106059E71168081D106040
S31508007E2000228E5E320041E708239A4690E7606892
S31508007E3020612CE784290108DC330108F0330108A6
S31508007E400EB410B5040083B0002802D08369002B55
S31508007E500BD006AB2000059AA168019304F0C8FB75
S31508007E6003B010BC08BC03B0184703F047F8F0E7A6
S31508007E700FB410B50B4B82B01C68002C02D0A36956
S31508007E80002B0BD005AB2000049AA168019304F0DF
S31508007E90AFFB02B010BC08BC04B01847200003F0C2
S31508007EA02DF8EFE70400002070B506000D00002845
S31508007EB037D08369002B32D084682F4B9C423AD046
S31508007EC02E4B9C4244D02E4B9C4252D0A3891B0772
S31508007ED035D52369002B32D02978002911D0A3681B
S31508007EE00135013BA360002B04DAA269934231DB1A
S31508007EF00A292FD023685A1C22601970297800296C
S31508007F00EDD1A368013BA360002B2CDA22000A21DD
S31508007F10300001F053FC431C17D00A2070BD02F054
S31508007F20EDFFB369B468002BC7D1300002F0E6FF55
S31508007F30114B9C42C4D17468A3891B07C9D421007C
S31508007F40300001F0B1FC0028C6D001204042E5E728
S31508007F50B468BBE72200300001F030FC431CBBD1FB
S31508007F6001204042DAE723685A1C22600A221A7066
S31508007F70D3E7F468AAE7C0466C2C01084C2C010824
S31508007F802C2C010810B5034B01001868FFF78CFF6D
S31508007F9010BDC04604000020002370B5064D04003D
S31508007FA008002B6007F0A4FC431C00D070BD2B68AA
S31508007FB0002BFBD02360F9E7E40700204A424A4138
S31508007FC0802310B55200DB0000F002F810BDC04651
S31508007FD0F0B54746CE4680B51F005E4B04001E68C6
S31508007FE00D00904683B0002E02D0B369002B5DD0F9
S31508007FF0594B9C4260D0594B9C425FD0584B9C428F
S3150800800000D191E04346022B05D0012B00D98DE023
S31508008010002F00DA8AE02100300002F0F1FD616BE2
S31508008020002908D023004433994202D03000FFF7D4
S3150800803077F8002363630023A36163600C22A35EC1
S315080080401A0655D4474A13404246A381022A5BD0F2
S3150800805001AB6A462100300003F058FCA3890343AC
S31508008060A381002F2CD1009F3800FEF79FFF051E25
S315080080705FD08022A3891343A381B369002B24D040
S315080080804346012B27D00C22A35E0822190025603F
S315080080902561676198B21140134222D0C30740D5C3
S315080080A000237F420020A360A7611CE0300002F095
S315080080B025FF294B9C429ED17468A3E7B468A1E7C3
S315080080C0002DD1D0B369002BDAD1300002F016FFAB
S315080080D04346012BD7D10122A38913431BB2A3819F
S315080080E0D3E70020A16003B0C0BCB946B046F0BDD6
S315080080F030002169FFF714F80C22A35E194A1340D1
S315080081004246A381022AA3D1002002221343A38157
S315080081100023A3602300473323602361012363619F
S31508008120E1E70020A760DEE7F4686BE7012040423C
S31508008130D9E7009B9946BB4204D01800FEF736FFE4
S31508008140051E04D101200C22A35E4042DDE74F46FE
S315080081508FE7C046040000206C2C01084C2C01084F
S315080081602C2C01085CF3FFFF436C10B50400002BB0
S3150800817001D0002010BD8021FFF732F86064002886
S3150800818006D002000023803208C09042FCD1F0E7F6
S3150800819001204042EEE7C046F8B506000C0017007D
S315080081A01F2907D8456C002D09D0A4002D19286869
S315080081B02F60F8BD1623036001204042F9E78021AD
S315080081C0FFF70EF8051E706407D0010003000022B1
S315080081D0803104C38B42FCD1E7E701204042E8E73F
S315080081E070B505000C001F2920D8436C002B0ED053
S315080081F08A009B181A68002A09D0012A14D0511C33
S315080082000ED00021200019609047002070BD28007C
S3150800821000F0F8F822000100280000F0DFF8F5E782
S31508008220162303600120F1E70020EFE71623036019
S3150800823001204042EAE7C04670B504000D001F2938
S3150800824025D8426C002A10D0A80012181368002BF3
S3150800825009D0591C19D0012B15D00021280011600E
S315080082609847002070BD0120FCE78021FEF7B8FF83
S31508008270021E60640BD0040003000020803401C392
S31508008280A342FCD1E0E70320ECE70220EAE701205D
S315080082904042E7E7154B70B504001D681F281FD834
S315080082A06B6C002B0DD082009B181A68002A08D028
S315080082B0012A13D0511C0DD00021196090470020C7
S315080082C070BD280000F09EF822000100280000F08A
S315080082D085F8F5E7162301202B60F1E70020EFE784
S315080082E0162301202B604042EAE7C046040000201E
S315080082F0124B70B504000D001E681F2807D8706C55
S31508008300002809D0A40004192068256070BD16232A
S31508008310012033604042F9E780213000FEF760FF14
S315080083207064002807D0010003000022803104C3CE
S315080083309942FCD1E6E701204042E7E70400002025
S315080083400C4B10B51C68636C002B01D0002010BDC7
S3150800835080212000FEF744FF6064002806D0020052
S315080083600023803208C09042FCD1EFE7012040424A
S31508008370EDE7C04604000020174B70B505001C68E1
S315080083801F2826D8626C002A10D0A8001218136875
S31508008390002B09D0591C1AD0012B16D00021280011
S315080083A011609847002070BD0120FCE7802120005D
S315080083B0FEF716FF021E60640BD0040003000021BE
S315080083C0803402C3A342FCD1DFE70320EBE7022097
S315080083D0E9E701204042E6E704000020002370B5E3
S315080083E0074D0400080011002B6007F05AFA431CD9
S315080083F000D070BD2B68002BFBD02360F9E7C04680
S31508008400E407002010B507F04AFA10BD10B5830737
S315080084100AD00300032102E001330B4205D01A7883
S31508008420002AF9D1181A10BD030019680C4A0D4C18
S315080084308A188A4322420FD15968094A04338A188E
S315080084408A43224208D15968054A04338A188A435E
S315080084502242F1D000E001331A78002AFBD1E1E785
S31508008460FFFEFEFE8080808030B5002A26D00300FD
S315080084700B439B0724D1032A22D9164D0BE0043A55
S31508008480002A1BD0144C1C199C432C4216D10430CC
S315080084900431032A14D903680C68A342EFD0047880
S315080084A00D78AC4213D1012306E0C45CCD5CAC4226
S315080084B00DD10133934201D0002CF6D1002030BDF6
S315080084C004780D78A54202D1012AECD1F6E7601BA3
S315080084D0F5E7C04680808080FFFEFEFEF0B5DE46EA
S315080084E0574645464E461C000023E0B5A1B01C93EE
S315080084F0BB4B82461B680D00180008920793FFF7CE
S3150800850085FF0022002383462F0004920593B54A6F
S315080085101B953B782D2B02D8990051588F4600227F
S31508008520099200220A92302B00D1E5E01C002F2B7D
S3150800853001D800F07CFD0022AC4638000026190060
S3150800854015000BE0013093009A181B90047852002E
S315080085505218303A210001362F2C10DD392C5BDCFD
S31508008560082EEFDDAB005B1901305B001B905B1832
S315080085700478303B1D00210001362F2CEEDC904696
S3150800858007995A46A9466546FFF76EFF002800D1A7
S31508008590BAE20D96002300209C4610930B93002EFA
S315080085A000D027E10A9B034300D09CE26346002BD8
S315080085B01ED1692C01D100F0B4FC17DC492C01D17D
S315080085C000F0AFFC4E2C13D187491BA803F03AF8EC
S315080085D000280DD01B9B1B78282B01D100F054FED8
S315080085E0824804F06FF983460F007FE26E2CEBD0C9
S315080085F0089B002B02D0089B1D6000239B46002782
S315080086005846390021B0F0BCBB46B246A946A0463A
S31508008610F0BD01371B977CE7904607995A46A9464D
S315080086206546FFF721FF00287AD11B9B5B441B9305
S315080086301C78002E01D000F07FFD302C01D000F010
S315080086406CFD0122D21A981801331B931C78302C22
S31508008650F9D02300313B082B00D9BAE31B9B01262E
S315080086609C4630235B429B46A3445B460793431CC8
S315080086701093002367460D934346079A9B0043448D
S3150800868090465B00434498460020634601331B939B
S3150800869063465C7821003039092900D938E31B9BE9
S315080086A001309C4607910029EFD0109C731CA34605
S315080086B083445C461A001094012801D100F0B2FCEC
S315080086C00A002C0080198B4645464946A046914625
S315080086D0013807E0AC0065196D00984201D100F039
S315080086E098FC013332001E00082AF3D9102BF4DC5B
S315080086F08C0061184900F0E77B78203293437E1C92
S31508008700582B01D100F060FC37001B963B780136E8
S31508008710302BF9D0002B00D1E5E101220A9205E7BA
S31508008720002300209C460D961093202322009A438E
S31508008730130000220B92452B00D030E733000A9A2B
S315080087400343134300D153E71B9D6B1C1B936C78A3
S315080087502B2C01D100F026FC2D2C00D107E3002399
S315080087609B462300303B092B00D9FBE2302C06D16F
S315080087701B9B01331B931C780133302CFAD0002342
S315080087800B932300313B082B00D908E71B9A0133CA
S31508008790511C1B915478079222002F2C0DDC00F0F7
S315080087A079FC9C00E4186400A4180A00230001312F
S315080087B01B915278303B2F2A01DD392AF1DD14004E
S315080087C0079A891A082901DC00F064FC084B0B9308
S315080087D05B46002B00D1E2E60B9B5B420B93DEE681
S315080087E08C2D0108082A01081034010824350108CF
S315080087F01F4E00000B9B109A9B1A0C930D9B002B87
S3150800880000D10D96B346102E01DD10239B46404637
S3150800881004F0DCFB04900591092E15DD5A46BE4B83
S31508008820093AD2009B181A685B68FDF72BFC04000E
S3150800883048460D0004F0CAFB02000B002000290080
S31508008840FCF7E2FC049005910F2E00DD72E10C9B0B
S31508008850002B00D160E30C9B002B01DC00F0F5FB3C
S31508008860162B01DC00F05CFC25230C9A9B1B93421B
S3150800887001DB00F073FC5B46F41A0C9B9C466444CF
S315080088800F231A00224023420AD0A349D20089188E
S3150800889008684968049A059BFDF7F4FB049005915E
S315080088A00F239C43231E00D0ABE2002307934346C5
S315080088B039000093504633000D9A03F069F9804653
S315080088C0002800D19FE30C99109B0B98CA171B1A16
S315080088D01A40CB43DB17194000260023C3469946A6
S315080088E0B04657460D9213915B463800596803F017
S315080088F097F88246002800D189E35B4659461B69EA
S315080089000C319A1C92000C30FEF764FB049B059C04
S3150800891019000B931EAB01931DAB00930A002300AD
S3150800892038000A9403F01CFD1C90002800D1AAE127
S315080089300121380003F0CEF98146002800D166E30C
S315080089401D9B002B00DABEE10D9A139C9D18079912
S315080089501E9A5B1A36219B188A1A7049013B8B426C
S3150800896000DB4FE1C91A521A1F2900DDC8E10123AD
S315080089708B400E9300231193079BA4189C46AE18B0
S315080089802B006444B54200DD3300A34200DD23001A
S31508008990002B02DDF61AE41AED1A0D9B002B00DDFA
S315080089A04DE1002E00DD65E10C9B002B00DD8EE11C
S315080089B0002C00DD9AE1002D08DD49462A00380022
S315080089C003F0F0FA8146002800D120E35246380029
S315080089D01C9903F077FB8046002800D117E3C3688B
S315080089E0494610930023C36003F052FB002801DABE
S315080089F000F060FC00D1C7E34946404603F01CFD81
S31508008A0080230022DB0504000D00FBF783FB00280A
S31508008A1000D1FCE0109B002B00D181E1059B0024CE
S31508008A200E93002311933E4B3D4D12933D4B0E9EE4
S31508008A301E403D4B9E4200D19FE1079B002B28D04C
S31508008A40D423DB049E4224D8384A394B119812990C
S31508008A50FBF760FB002818D011981299FBF7EAFB80
S31508008A60002800D1013004F0B1FA0B0012911099D8
S31508008A7002001190002900D015E3169280221206F2
S31508008A80944663441793169C179DD623DB04EB186C
S31508008A909D1B0B980A9903F0DBFB02000B002000D4
S31508008AA02900FDF7EFFA0B9A0A9BFCF7ADFB0C00C1
S31508008AB004900591079B002B04D11A4B23409E4234
S31508008AC000D146E238001C9902F0ECFF5146380006
S31508008AD002F0E8FF4946380002F0E4FF4146380054
S31508008AE002F0E0FF00E7002300279B46089B002BC7
S31508008AF001D01B9A1A60099B002B00D180E58021C2
S31508008B0009067B181F007BE51B9B0D965B441B9390
S31508008B101C7800231093BDE5F82D010802FCFFFF21
S31508008B200000F03F0000F07F0000E07F0000C0FF7B
S31508008B30FFFFDF415B46F41A0C9B9C466444002CFD
S31508008B4000DD9DE600D1B0E60F231A0064422240FC
S31508008B5023420AD004980599D14BD2009A18536833
S31508008B601268FCF78DFE04900591241100D19CE64D
S31508008B701F2C40DC10231A0022400792234201D002
S31508008B805A33079301220498059900239146C54D47
S31508008B9028354A46224204D02A686B68FDF772FADD
S31508008BA0012364100835002CF3D1002B01D0049062
S31508008BB00591079B002B15D0049B059C6B2362002F
S31508008BC0520D21009B1A002B0CDD1F2B01DC00F037
S31508008BD0DEFB00200490342B01DC00F024FCDC23AF
S31508008BE09B0405930022049805990023FBF782FA53
S31508008BF0002800D15BE62223524613600023002793
S31508008C009B4673E70023119301330E93B4E60022C3
S31508008C10A54B20002900FDF735FA0B001291109993
S31508008C2002001190002976D11492802212069446E9
S31508008C3063441593059B149C159D0E93F6E64946C9
S31508008C401A00380003F02EF98146002800D1DEE12B
S31508008C5001001C9A380003F053F81090002800D140
S31508008C60D5E138001C9902F01DFF109B1C93002EBD
S31508008C7000DC99E6320038001C9903F093F91C9041
S31508008C80002800D090E653464646BA46D8460C9386
S31508008C9022235246136000239B46844F0100504608
S31508008CA002F000FF50460C9902F0FCFE4946504679
S31508008CB002F0F8FE4146504602F0F4FE31005046F6
S31508008CC002F0F0FE12E7139A0D9DD41A3FE65146BC
S31508008CD03800139A03F0E6F88246031E00D067E6CA
S31508008CE04646BA46D8461C980C93D1E75146220008
S31508008CF0380003F057F98246031E00D05BE6EFE71B
