:100000000C9434000C9446000C9446000C9446006A
:100010000C9446000C9446000C9446000C94460048
:100020000C9446000C9446000C9446000C94460038
:100030000C9446000C9446000C9446000C94460028
:100040000C9448000C9446000C9446000C94460016
:100050000C9446000C9446000C9446000C94460008
:100060000C9446000C94460011241FBECFEFD8E03C
:10007000DEBFCDBF21E0A0E0B1E001C01D92A23003
:10008000B207E1F70E946D000C9480000C94000010
:100090001F920F920FB60F9211248F939F9380910E
:1000A000000190910101019690930101809300015C
:1000B00086E086BD9F918F910F900FBE0F901F908D
:1000C00018951092010110920001209100013091C9
:1000D000010128173907C8F3089580E284B915B8DB
:1000E00083E085BD86E086BD81E080936E007894D4
:1000F000CFEFC095C5B988EE93E00E946100F9CFBB
:04010000F894FFCFA1
:00000001FF
